:1020000000800020B962000081620000A16200002F
:1020100000000000000000000000000000000000C0
:10202000000000000000000000000000A1620000AD
:102030000000000000000000A16200000D6300002D
:10204000A1620000A1620000A1620000A162000084
:1020500045620000A1620000515C0000A562000022
:10206000A162000035600000A1620000A1620000D2
:10207000A1620000A1620000A1620000A162000054
:10208000A1620000A1620000A1620000A162000044
:1020900000000000A1620000A1620000A162000037
:1020A000A1620000A1620000A1620000A162000024
:1020B0000000000010B5064C2378002B07D1054B1B
:1020C000002B02D0044800E000BF0123237010BDA4
:1020D0002003002000000000ACEA0000044B10B513
:1020E000002B03D00349044800E000BF10BDC046E8
:1020F0000000000024030020ACEA00000A0013B531
:10210000032807D80138022807D81F4C06F052F9D7
:102110000A192200632826D013BD01201B4903F0B1
:1021200007F9F9E71A49012003F002F900215023C9
:10213000FF220091200003F0F4FA200003F0BEF922
:10214000EAE71449012003F0F3F80021FF230A0015
:102150000091EFE71049022003F0EAF80021FF2385
:1021600000911A00E6E703200C4903F0E1F8002192
:10217000054C0B002000FF22009103F0D2FA200052
:1021800003F09CF9FEE7C0464803002098D5000004
:10219000AAD50000C6D50000D9D50000EFD50000B3
:1021A00000B595B000F0C6FF022801D000F0EAFEAD
:1021B0000020194903F0BCF86846184901F06AFC90
:1021C000282269460AA808F064F96B4628229B1861
:1021D0001B78002B02D1002015B000BD01F0B6FC29
:1021E000002802D1013001F01FFD012001F016FC92
:1021F0000B49821C0C2003F09BF86B4628229B188D
:102200001B78002BE7D01D320C2006490AAB6A442C
:1022100003F08EF80120DFE706D6000030750000DD
:102220001DD6000037D6000010B500F07DFF10BDB0
:1022300070B5092004F036FA08F046F804000D00E5
:102240000920002104F0A2FA200029000B4A0C4BBF
:1022500007F0E8F90B4B0C4A04000D0006F04AFAAF
:1022600003000120002B08D1084B20002900084A58
:1022700006F040FA431E9841400070BD6D1AD0A68A
:10228000016D7A3F66660E406666666699990D40F6
:102290009A99999907B5002009F028F96B460733F8
:1022A000181A0EBD84B010B50024A2B02490259158
:1022B000269221000B221FA827931E9408F0F2F803
:1022C0000F2370221D9327A91EAB68461C9308F0AC
:1022D000E0F8269B2499259A0D4802F0FEFD0D4951
:1022E0001EAA0A2003F024F86B4678229B181B785C
:1022F0002100312B00D00121052004F077FAC820FD
:10230000054902F003FC22B010BC08BC04B0184719
:1023100051D600005AD600006BD6000084B010B52C
:10232000E6B0689069910A2012496B936A9202F0B4
:10233000FFFFC6220021520003A8029108F0B2F864
:1023400002F06EF80400052004F07CFAC821434234
:102350005841094A23000090490002A808F094FF60
:10236000C82002A902F0D2FB66B010BC08BC04B0C1
:102370001847C0466ED6000081D6000030B524480C
:10238000F9B002F044FF00280FD0224B224A282146
:102390001B8814A808F078FF0B20204902F0C8FF22
:1023A0001F49204814AA02F0FDFC1F4802F02FFF2D
:1023B000002828D00025174C152022881B4902F040
:1023C000B7FF4C22290001A8009508F06BF8C6223F
:1023D0002900520015A8149508F064F850212388AC
:1023E000134A684608F050FFC8212388114A490063
:1023F00014A808F049FF69460F4814AA02F03AFEF3
:1024000023880133238002F00FFA79B030BDC04633
:102410003C03002004000020ACD60000C4D600001D
:10242000DDD60000EBD600006003002004D70000DA
:1024300010D7000028D7000038D7000010B5054A93
:102440000549064802F034FB054A0649064802F0F1
:102450002FFB10BD72D800001D23000045D70000DF
:102460004ED70000A52200005BD70000F0B50C207D
:10247000A5B0344902F05CFF0021092004F086F980
:102480000121052004F082F90121052004F0AEF9B4
:102490002D4D0024280002F0BFFF2800052103F085
:1024A00063F9FF230093002328001A00190003F0AA
:1024B00038F9280003F002F80422244B04921A0091
:1024C000694603941032C1CAC1C10FCB00F0C0FDF0
:1024D000FFF766FE1E4B1F4A01931F4B1F490093D7
:1024E0001F48230001F05EFF0BA800F041FE23000F
:1024F0001C4A0BA91C4802F091F801201B4902F06C
:1025000017FF2200FF2321002800009403F009F99F
:1025100006AE280002F0D2FF3000154902F06CFE32
:10252000144B07CE07C3FFF789FFFF2322002100CA
:102530002800009403F0F5F8280002F0BFFF25B052
:10254000F0BDC04663D7000048030020080000200B
:10255000952200002922000031220000A121000064
:10256000FD2000007CD700001FD8000046D80000E6
:10257000307500006003002010B5064C522308227D
:102580000121200003F0B6F82000034A034905F0BA
:1025900009FF10BD4803002000000020FD5300008B
:1025A0000021034B1B68DA6A024BD1547047C046C6
:1025B000B8130020B405000070B514000D4A049D46
:1025C0001268D26A002B01D00B4E9353B923DB0063
:1025D000002D0CD0D550002200F0BEFA200008F0EB
:1025E000B4FE012281B2200000F0B6FA70BD034DA6
:1025F000F0E7C046B8130020C4050000F52700002E
:10260000F0B5404C0F00226885B0936A0500596808
:102610000968009100210391596809690978002926
:1026200024D05868B923D26ADB00D358006903A9C3
:1026300098470600C72819D9236803999B6A5A68E6
:1026400011615A685B6812699B689A4201D200F076
:1026500001FB002F04D000212368DA6A2A4BD154F1
:102660002E802800009B6B6005B0F0BD2368274AD0
:10267000DB6A995A0C3A985801F0FAFD002301934D
:10268000984209D000212368DA6A1F4BD154CC2329
:102690001F495B005352019323681E4EDB6AF022F0
:1026A0000021985907F0FEFE2368EF22D96A885965
:1026B00008F063FE2768F022FB6A00219859124B4C
:1026C000C01807F0EFFEFB6A0F4A99598818B82125
:1026D000C9005958EF2208F050FEFB6A0C499A597C
:1026E000595AD523DB00D15201F0AEFDB721236842
:1026F000C900DB6A9A595B58C01A074BD050019B3E
:102700002B80AEE7B8130020B4050000C40500001C
:10271000BC050000CC050000A4060000F8B50400CC
:102720000E0031002000FFF76BFF0A4B25881B6865
:10273000676830331B78002B07D101F089FD002D2D
:10274000EFD0200025806760F8BDF4250027FF3515
:10275000F7E7C046B8130020F7B50400080001935E
:102760000D00009208F0F1FDC3B20700099E002B96
:102770000AD02900200008F014FE009B002B04D092
:10278000002804D10020FEBD2000002801D0FCB2AA
:102790000419089B002B13D01900200008F001FE3B
:1027A0000500089808F0D1FD28183060002DE9D008
:1027B000019BC820E418A542E5D22D30FF30E2E7A6
:1027C00020000A4908F0EDFD051E02D0031D33600C
:1027D000EEE72000064908F0E4FD0028D2D00A22E6
:1027E00031000B3008F076FE80B2CCE76ED80000E6
:1027F00073D8000007B5019100210B000A00009179
:10280000FFF7AAFF0EBDF8B50D0017001E0008F077
:10281000C8FD041E14D0280008F097FD00252018DC
:102820002C24AF420DD80A22310008F053FE80B2AA
:1028300000280CD0632803D8E1239B00C01880B285
:10284000F8BD210008F061FD01350130E9E7C8203D
:10285000F6E70000F8B51F4D1F4F2B680600DB6A36
:102860000C00DB5D002B0FD0002901D10020F8BD4A
:10287000013CE4B2002CF9D0642001F0F5FC2B6897
:10288000DB6ADB5D002BF3D12B68134AD86A012386
:102890000021C35507F006FE2B683000DC6A08F003
:1028A00054FD0E4B0200984200D90B4A3100200023
:1028B00008F063FD00222B680949DB6A5A52094976
:1028C0005A5204395A5010315A5000F07FF9012001
:1028D000CDE7C046B8130020B4050000B3050000E2
:1028E000C4050000BC050000F7B504001D000192FE
:1028F000FFF7B0FF061E22D0124F01993B68DB6A3A
:102900000093009A104BD15201F09EFCB723009A1D
:10291000DB00D050002D00D10C4D3B682000DA6A5E
:10292000B923DB00D55008F010FD002281B2200051
:1029300000F012F901220648110000F00DF93000F4
:10294000FEBDC046B8130020C4050000F5270000F6
:10295000BCDB0000FA2210B50A21024B5200FFF73F
:10296000C3FF10BDF527000030B544680300C06800
:10297000621C904200DC00229D680020954203D03A
:102980001868015501205A6030BD030010B55A681F
:1029900084680020A24209D0D868621C904200DC02
:1029A00000221868005D087001209A6010BD70B5A3
:1029B0001C210500012007F0E9FC041E0AD02900B3
:1029C000012007F0E3FC051E206005D1200007F080
:1029D0003DFD2C00200070BDFF23A060E060206161
:1029E0002375F7E7F8B506000D000024A7B2A5424D
:1029F00001D83800F8BD054B31191B689B6A18686F
:102A0000FFF7C3FF0028F4D00134EFE7B81300202C
:102A1000F8B5060000201B4F3B689D6A8300EB1849
:102A2000DA68002A05D0DB681B7DB34201D1C0B251
:102A3000F8BD01300328F1D10024A300EB18DA68B7
:102A4000002A0AD0DA68127DFF2A06D1A31C9B0057
:102A5000ED186B681E75E0B2EAE7DB68002B0CD15D
:102A600080200001FFF7A3FF3A68A31C9B00926A35
:102A7000ED186860D3185B68ECE70134032CDCD1F7
:102A8000FF20D5E7B8130020F8B52021012007F07A
:102A90007DFC041E02D1134900F05AFB10210120D5
:102AA00007F074FC051E0BD00F4F0120390007F012
:102AB0006DFC061E286013D1280007F0C7FC350006
:102AC000802040002560FFF772FF012360608020B6
:102AD0005B4200012381FFF76AFFE0602000F8BD40
:102AE000EF60EDE77FD80000B405000010B5094C99
:102AF0000322236801219868074BC0B201F0E7FA6E
:102B0000082123685956186A01F01CFB01F002F9EC
:102B100010BDC046B8130020A52D000010B501F06F
:102B200093FB0400094B1B680533DB7F012B00D9A5
:102B300010BD01F08DFB01F087FB054BE3188342CC
:102B4000F0D2FA200349400000F002FBB813002045
:102B500088130000A5D80000F0B506000D00002481
:102B600095B00192A7B2AC4208D2164B315D1B68FA
:102B70009B6A1868FFF7F8FE002806D1BD4206D010
:102B8000FA201149400000F0E3FA0134EAE7019B22
:102B9000002B15D0082001F06FF8040040280FD159
:102BA00000213D2204A8039107F07CFC210003A82A
:102BB000FFF718FF002803D0C1B203A801F0BCF84A
:102BC00015B0F0BDB8130020D8D800000A4B10B5DE
:102BD0001B6800219B6A5C68A368226820689A1AB7
:102BE00007F060FC2368A360E3602361FF23237583
:102BF0000023E382237610BDB81300200C4B023073
:102C00001B6880009B6A10B5181844680021A368EF
:102C1000226820689A1A07F045FC2368A360E360E5
:102C20002361FF2323750023E382237610BDC04672
:102C3000B813002010B50C00054908F0B2FB0028BD
:102C400001D1206010BD02302060C820FAE7C046E4
:102C5000EFD80000F7B54C4E062237682B21BC6A2E
:102C60006368D86807F0FCFB051E00D17BE0A37EFB
:102C7000002B1CD001000F22444807F0FCFB031E70
:102C800015D16268D0680F300A2201A9019308F0BB
:102C900021FCC3B20C2032685843D36B18180123AF
:102CA000C370936A5A685B68D2689A6023E0637E57
:102CB000002B0AD00D222900354807F0DCFB031E4B
:102CC00003D16268D0680D30DEE7237F002B13D07C
:102CD000092229002F4807F0CEFB00280CD13B6CBD
:102CE0001A00FC329562626890689422451B52007B
:102CF0009D5406232372F7BDE37E002B09D00922E1
:102D00002900254807F0B7FB002802D13B6C18705A
:102D1000F1E7237E002BEED0290011221F4807F097
:102D2000AAFB051EE7D163680A22D86801A9113001
:102D3000019508F0CFFB3268C0B2936B19798142DC
:102D400008D0997D81420CD01900283109780235CC
:102D50008142A6D11220002145435B191971997156
:102D60009FE70125F6E70537FB7F022BC3D0636899
:102D70000922D9680A4807F07EFB0028BBD102234C
:102D8000FB77626863688FE7B8130020F2D8000011
:102D900002D9000010D900001AD9000024D900007F
:102DA00036D90000F0B595B0022000F065FF012390
:102DB0001842F9D13E2303400193062B17D100F0AE
:102DC000C7FF022000F058FF01231842F2D06B4BDE
:102DD0001B689868C0B201F071F9002800D0CBE000
:102DE000083000F049FF092000F046FFDCE73623F9
:102DF000184004281BD1053000F03EFF051E16D0F8
:102E00005E4E33689C6A237AFF2B27D163680100EA
:102E1000986800F085FF33689B6A59685A6889682A
:102E20005B68D1609A6855199D60FFF713FF019B9D
:102E3000022BC6D100213D2204A8039107F032FBEA
:102E4000082000F019FF81B203A8FFF7CBFDC1B243
:102E50000029B6D003A800F06FFFB2E7237A052B54
:102E600029D8637AFF2B04D1207AC0B2FFF7D0FDB6
:102E70006072336829009A6A537A02339B00D31830
:102E80005B68986800F04CFF33689B6A5A7A02329C
:102E900092009A1851685A7A8968023292009A18F8
:102EA0005268D1605A7A023292009B185B689A6825
:102EB00055199D60BBE7237A062BB8D1637AFF2BA7
:102EC00012D1207AC0B2FFF7A3FD316860728A6A1E
:102ED000096C537A02339B00D3185A6894235B0021
:102EE000CB5C9168CB189360336829009A6A537A57
:102EF00002339B00D3185B68986800F011FF3768B5
:102F00001F48BC6A637A02339B00E3185A68637AED
:102F1000926802339B00E3185B68DA60637A0233DD
:102F20009B00E3185B689A6855199D60637A0222DA
:102F300002339B00E3185B689968023908F00CFAC9
:102F4000002800D073E7637A02339B00E4186268BC
:102F50003B6C1068942252009A5CFC33996A07F02B
:102F600098FA3268936A116C2A22587AFF32885490
:102F70002A3A5A721A725AE715B0F0BDB8130020F7
:102F800070D8000010B5314C002123681869C0B218
:102F900001F099F8236800215869C0B201F093F854
:102FA000236801215868C0B201F08DF8236801211F
:102FB0001869C0B201F07EF8236801215869C0B2D7
:102FC00001F078F8236801215868C0B201F072F866
:102FD00023680021D868C0B201F06CF82368022190
:102FE0009868C0B201F066F82368186A01F098F892
:102FF0002368D868C0B201F061F8002816D100F04B
:10300000BDFE012223680533DA7700F053FE236802
:103010001B78012B03D9FFF769FDFFF77FFD2368BC
:103020001B78022B01D900F013FF10BD0221236889
:103030005A1DD1779868C0B201F040F80028E4D159
:1030400008210E3000F028FEDFE7C046B81300204C
:1030500084B0F7B50B930FAB1B780A920193192339
:1030600002AA089009919B1844210120DD7F07F0F6
:103070008DF9294C061E206000D1FEE7031D08AA29
:1030800083CA83C383CA83C312681A607368D8B2C1
:1030900001F022F8632130620120276807F076F9F9
:1030A0007863002800D1FEE70126FB1DDE77B542DC
:1030B00024D9FFF7E9FCB862022D1FD0BA213000F5
:1030C000C900276807F062F914490090F8623000DF
:1030D00007F05CF9124B009A0099D0500022114B76
:1030E000CA54032D0AD000F073FCB863266800F0C0
:1030F00021FFF063266800F03BF93064002223686A
:103100001D7030331A70019B934201D0FFF73AFFD4
:10311000F7BC08BC04B01847B8130020AC06000088
:10312000CC050000B405000010B500F06DFEFFF7FF
:1031300029FF10BD024B1B680533D87F7047C0467E
:10314000B813002010B500F015FF00F095FB10BD7E
:10315000FEE7000007B5044B019100930122142300
:103160000249FFF7F9FA0EBD6ED8000040D9000001
:10317000F7B54F4C050023685B6B1E78002E15D108
:103180004C48FFF7E7FB002810D031006846FFF7F6
:10319000C5FA6B461B88C82B06D1019923680F22FC
:1031A000586B023108F0E9F8FFF7FAF923685B6B16
:1031B0001E7C002E1AD1FA220A213F4B3F485200B2
:1031C000FFF792FB002811D031006846FFF7A6FAFE
:1031D0006B461B88C82B07D123680199586B1422B2
:1031E0000A31103008F0C9F8FFF7DAF923685B6B91
:1031F0003A331F78002F22D13148FFF7ABFB00286C
:103200001DD039006846FFF789FA6B461B88C82B2A
:1032100013D1019B2B499E1C300008F0C2F80770A7
:1032200027683100786B3A3008F087F8786B5F21B7
:103230003A3008F06AF820230370FFF7B1F92368E9
:103240005B6B0633DF7F002F2AD11F48FFF782FB1D
:10325000002825D039006846FFF760FA6B461B88C6
:10326000C82B1BD1019B19499E1C300008F099F80E
:10327000077027683100786B253008F05EF8786BAE
:103280000D21253008F041F83A23037023680A2104
:10329000586B253008F039F820230370FFF780F9C8
:1032A000236828006322596B07F0F3F82800FEBD5D
:1032B000B813002049D900005531000050D9000052
:1032C00059D9000070D8000061D9000065D900000C
:1032D00010B50B0000220249FFF795FA10BDC04659
:1032E0006BD900000B0010B501220649FFF78BFADD
:1032F000054BC01843425841044B40421840F83037
:10330000FF3010BD76D9000079FCFFFFD1FEFFFF32
:1033100010B50B0001220249FFF775FA10BDC04637
:103320006BD9000010B50B0002220249FFF76BFABF
:1033300010BDC04676D9000010B50B00022202492C
:10334000FFF761FA10BDC04681D900000B000222D0
:1033500010B50549FFF757FA044B984201D0C82031
:1033600010BDCC204000FBE78BD900008603000095
:10337000962110B50120490007F008F8002802D175
:103380000449FFF7E5FE012343802A23FF22FF3390
:10339000C25410BD95D9000073B52C4E050033689A
:1033A0001B6C002904D10278002A01D1187876BD5F
:1033B00000221A70F5320A21254B2648FF32FFF70A
:1033C00093FA00280BD001216846FFF7A7F96B4656
:1033D0001B88C82B03D1022233681B6C1A70336818
:1033E0001B6C1B78022B2DD02B78002B2AD0FA22B5
:1033F0000A21194B19485200FFF776FA002821D00C
:1034000001216846FFF78AF96B461B88C82B03D059
:10341000002233681B6C1A702B78002B12D02221EB
:10342000019807F072FF041E09D0280007F08DFFF5
:1034300029000200601C07F08FFF434258413368A7
:103440001B6C187033681B6CB0E7C046B8130020C3
:10345000E5320000BED90000D1320000CAD9000018
:10346000F0B5A3B002910021040015000EA84D2272
:1034700003930D9107F016F8434E012133682000A5
:103480001F6CFFF789FF38703368C8201B6C1B78EE
:10349000012B70D8FF2D3BD1039B042B12D10523A8
:1034A00051213A4A0DA807F0EFFE0DA8FFF752FA96
:1034B000002807D00BAD01212800FFF72FF92B883A
:1034C000C82B4ED1029B5121314A01930094052310
:1034D0000DA807F0D9FE0A212E4B2F4A0DA8FFF7A1
:1034E00003FA002847D005AC20000121FFF716F9A8
:1034F0002088C8283AD0294BC01883B2062B30D870
:1035000006282ED804F056FF3E2D2F393E3C3E00B3
:1035100005235121224A00950DA807F0B5FE0DA8FC
:10352000FFF718FA002814D1052351211D4A0093F2
:103530000DA807F0A9FE0DA8FFF70CFA0028ABD0E4
:1035400009AD01212800FFF7E9F82B88C82B08D125
:10355000A2E707AD01212800FFF7E0F82B88C82B70
:10356000E2D0FA2000E0C820400004E00122064B2F
:103570001B689B6ADA7623B0F0BD9A20FF30FAE729
:10358000CA20F1E7CD20EFE7B813002022DA0000CF
:103590000CDA000011330000C8AF00007DFCFFFF13
:1035A000D6D90000F4D90000002230B5FF240F4B1B
:1035B00019680B6C1A70886AC27691004118CD6840
:1035C0002D7D062D01D1C9680C750132032AF4D175
:1035D000180030210022643019711A66C26501702A
:1035E000FC335C3001715A6230BDC046B813002014
:1035F000F0B51500C6220C000021EFB00590520076
:103600000BA81E000A9106F04DFF2A4FC8203B6808
:103610001B6C1B78022B46D005235121264A0096AD
:103620000AA807F031FE0AA8FFF794F9002815D17F
:10363000C821059B214A0093490005230295019466
:103640000AA807F021FE0A211D4B1E4A0AA8FFF70F
:103650004BF900280DD19130FF3024E008AE012154
:103660003000FFF75BF83388C82BE1D0FA20400028
:1036700019E006AC20000121FFF750F82088C82887
:103680000DD0114BC01883B2042BEFD80428EDD80D
:1036900004F090FE0D0D030D0B00F820DCE7022274
:1036A0003B689B6ADA766FB0F0BD9420D4E7C820FF
:1036B000DDE7C046B81300203BDA000055DA000011
:1036C0002533000060EA00007BFCFFFFF0B5F9B095
:1036D0000592B222079100210600FF320BA80A9141
:1036E00006F0E0FE059B002B03D1C820400079B016
:1036F000F0BD300007F029FECD235B009842F4D2E4
:10370000304B1B681B6C1D79002D0ED01A006432E3
:103710001278002A08D01A00C43212780225002A32
:1037200003D09A20FF30E2E7012584B23018013837
:103730000178232906D160226A439A185E32013C3F
:103740001170A4B2221C5A2C00D95A22602169435C
:10375000081D92B206911818310007F00EFE0021E4
:10376000184F0AA83B681A6C069BD3181C192171C4
:1037700005991966C8215388490001339BB25380CB
:10378000079A0093029205230F4A019607F07CFDE9
:103790000A210E4B0E4A0AA8FFF7A6F80028A4D06B
:1037A00008AC20000121FEF7B9FF2088C8289ED16F
:1037B0003B689A6A0123AB40117F0B43DBB213775E
:1037C00095E7C046B813002072DA000039330000D4
:1037D000983A0000F0B500241500B222F5B00E00B2
:1037E00007002100FF3207A8069406F05BFEA64200
:1037F00006D01B4B1B681B6C5C880134A4B25C8038
:10380000B6210523174AFF3102970196009406A8B6
:1038100007F03AFD64220A21134B06A8FFF764F86B
:1038200000281AD004A80021FEF778FF6B46188AFA
:10383000C82810D1280007F088FD0C4B81B20C4A33
:10384000280000930B4BFEF7B7FE04A80121FEF7FA
:1038500065FF6B46188A75B0F0BDC8204000FAE7D6
:10386000B81300208ADA0000352C00004D33000028
:10387000A4DA0000C4090000F0B54C4D8DB02B68EF
:10388000196C002900D18AE02A22FF32895C059256
:1038900001910A00FF2900D181E09B6A0232920067
:1038A0009B185B6807AE1122300041491C6806F086
:1038B000F0FD80220023120118009446225C002AA9
:1038C0001ED0252A16D1871CE15D0A00303AD2B2FB
:1038D000092A05D90A00413A052A05D83739CAB25A
:1038E000B25C3800E25406E00A00613A052A02D8C8
:1038F0005739F4E7E254013301309BB26045DDD320
:10390000E31800245C702A68019B966A9B00F618F5
:10391000F36818222221186806F0A2FDA04236D0D2
:10392000F368471C222138009A6806F099FDA042EE
:103930002DD00470C31C0393019A2B6802329B6A3A
:1039400092009B185B680D219A68121A039806F082
:1039500087FDA0421BD0013804702B681B6C0293BA
:103960001E1D300007F0F1FC83B21A003900300050
:10397000049307F0F1FC002813D1049B029AF91874
:1039800060236343D31830001B6E039A9847FF22CD
:103990002B6805991B6C01985A54FFF72FF90DB04D
:1039A000F0BD01346036032CDBD1F0E7B813002002
:1039B000A6DA000007B5044B019100930022022310
:1039C0000249FEF7C9FE0EBD6ED80000B7DA00004E
:1039D00010B53C21012006F0D9FC041E03D10020C3
:1039E0000D49FFF7B5FB2821012006F0CFFC12217D
:1039F0002060032006F0CAFC0028F0D0220001233A
:103A000029326371E3759374137012329374123216
:103A10002000937410BDC046C0DA00000B4B1B6839
:103A20009B6B1A79002A0DD1987D00280CD11A00C1
:103A300028321278002A04D0022212205043043087
:103A4000181870470022F8E70122F6E7B8130020A3
:103A5000F7B5040017000193002816D007F055FCB5
:103A6000051BEBB20600002B11D0EDB22A0000219D
:103A7000380006F017FD019A013AAA4200DD2A003B
:103A80002100380007F079FC741C2000FEBD1C00EA
:103A9000FBE70000F0B58DB0060000F0D5FB274D28
:103AA00002AC2B689B6B19680F78002F0BD0282273
:103AB000200006F0EEFC28222100300006F0E9FC90
:103AC00030000DB0F0BD1E48FEF744FF002825D0A1
:103AD00039002000FEF722FE2388C82B28D122219E
:103AE000606807F012FC0190002817D02B68222193
:103AF0009A6B01301D231268FFF7AAFF0A2201907A
:103B000001A9013007F0E6FC2B68C0B29B6B0828C6
:103B10000AD118680B491D3007F00FFCFEF740FD75
:103B20002B689B6B1968C2E7186807491D30F3E7DB
:103B30002B689B6B1B681F705F77EFE7B813002043
:103B4000EFDA0000F8DA0000FFDA0000FA22F0B540
:103B500089B0314B52000A2102AE3048FEF7C4FE54
:103B600000213000FEF7DAFD2D4B00241B68039D79
:103B70009B6B1A001C719C719C751C7628322A3331
:103B800014701C703388C82B04D0FEF709FD200088
:103B900009B0F0BD280007F0D8FB0828F5D92800A7
:103BA000204907F0FEFB0028EFD012260A22083039
:103BB00001A9050007F08EFC194F66433B682C21D4
:103BC0009B6B9B191871019B581C019007F09DFB82
:103BD0000A22019001A9013007F07CFC3B682221F8
:103BE0009B6B04AA9B195871019B981C1023FFF72B
:103BF0002FFF0190002807D03B680636986B1022F3
:103C0000801904A907F0B9FB28000649013407F020
:103C1000C8FBE4B2C7E7C046B539000007DB0000C7
:103C2000B8130020B7DA000010B50021040096B0E8
:103C30004C2203A8029106F035FC230050210C4AC7
:103C400002A807F021FBFA220A210A4B520002A81F
:103C5000FEF74AFE002809D001216846FEF75EFD06
:103C60006B461B88C82B01D1FFF770FF16B010BD43
:103C700011DB0000B5390000C1007820054B014080
:103C80001B68083010B50143186A00F067FA000499
:103C9000000E10BDB81300207823C000184010B5E6
:103CA000034B09021B680143186A00F057FA10BD64
:103CB000B813002010B508210E20FFF7EDFFBF213B
:103CC0000320FFF7E9FF0220FFF7D6FF10210024B1
:103CD0000143C9B20220FFF7DFFF00210320FFF7F5
:103CE000DBFFB1210220FFF7D7FF80210320FFF780
:103CF000D3FF20000421FFF7CFFF21000120FFF7B1
:103D0000CBFF21000320FFF7C7FF03210800FFF7C7
:103D1000C3FF10BD10B507210120FFF7BDFF10BD87
:103D20000B0010B50349020008688021006A00F00A
:103D30005BFA10BDB81300200B0010B50349020058
:103D400008680021006A00F04FFA10BDB813002087
:103D500010B50920FFF790FF0520FFF78DFF4024E5
:103D60000020013CFFF788FF002CF9D10920FFF764
:103D700083FF0520FFF780FF10BD000070B50F4CDA
:103D800001212368FA2518696D00C0B200F09BF983
:103D9000FA20400000F068FA236800211869C0B2D8
:103DA00000F091F92368D868C0B200F087F90028C4
:103DB00000D070BD280000F057FAF3E7B8130020D8
:103DC00070B50F4C01212368FA2518696D00C0B247
:103DD00000F079F90B4800F047FA236800211869D0
:103DE000C0B200F070F92368D868C0B200F066F97C
:103DF000002800D170BD280000F036FAF3E7C04675
:103E0000B8130020DC05000070B501240D4D220020
:103E10002B6803210533DC770B48FEF79DFE22005B
:103E20000B210A48FEF798FEF434FF342B68D8685B
:103E3000C0B200F043F9002800D070BD200000F0AF
:103E400013FAF3E7B81300201EDB000022DB0000AA
:103E500030B5022485B01248FEF77CFD684601218A
:103E6000FEF75CFC0F48FEF775FD002816D002AD8A
:103E700001212800FEF752FC2B88C82B0ED0012C04
:103E800007D0FFF79DFF0124FFF778FFFEF746FEFE
:103E9000E1E7CC2004494000FFF75AF905B030BDF6
:103EA0002FDB000032DB000037DB000030B50D00F7
:103EB000002189B00400102204A8039106F0F2FA50
:103EC000052C0FD8164B1B68DA6B0C2363439A5CE6
:103ED000144B00932300022A1FD1134A142103A874
:103EE00007F0D2F9002D05D00A2103A8FEF7B2FC95
:103EF000002810D00A4B03A81B689B6A1C7207F0AD
:103F000024FA002281B203A8FEF726FE0122074808
:103F10001100FEF721FE09B030BD054ADEE7C046BC
:103F2000B8130020DC05000058DB0000BCDB0000FB
:103F30006ADB000070B54821012006F027FA00284E
:103F400002D10A49FFF704F9094B01001B68FF225F
:103F50000733DD7F0024030048311A705D719C60D7
:103F60001A710C338B42F8D170BDC046C0DA000024
:103F7000B8130020F0B54E4D89B02B689B6A1B7AB0
:103F8000052B1AD92A68936A997E002902D1597E95
:103F9000002910D01B7AFF2B0DD100230C24D16BEC
:103FA00022005A438A18D278D8B2002A00D179E088
:103FB0000121FFF77BFF09B0F0BD00262B68B2009E
:103FC0009B6A9B18DA68002ADCD0DC68237D052B0D
:103FD00061D8E38A002B5ED12068A36883425AD956
:103FE00021000A220930103107F074FA82B2E2820D
:103FF000002A3DD02369A268023380B223610830D1
:10400000D31A1A1A51424A412276834246D10C27CA
:104010002A68936AD26B187A597A7843C9B212180F
:104020001171FF225A720C222B68DB6B019305ABD6
:104030009C4613006746207D43430293029A019BEE
:104040009A180BCA0BC76346029A5F7894461B798D
:1040500021690393019B380063449B68E28A984777
:104060000398FEF7CBFD00213800FFF71FFF15E096
:104070000C23FF27217D28685943C36B22765B18E8
:104080001F713000DA70FEF7B9FD2B689B6A5F7212
:104090001F72FEF785FA237E002BC4D10136032E52
:1040A0008CD16FE70133062B00D079E783E7C04658
:1040B000B813002010B502F069FB10BD10B502F076
:1040C000C1FBC0B210BD10B502F090FB10BD10B521
:1040D000190001F0F5FF10BD70B50600042006F0D0
:1040E000ABF9051E09D0082006F0A6F9041E2860C9
:1040F00005D1280006F0AAF92500280070BD81230B
:104100005B00054A8380054B02601A6000229A809A
:10411000FF3286711A72F0E780841E006C03002063
:1041200010B5040003680121987902F05FFB236851
:104130000121987902F02AFB014801F0CDFC10BD65
:104140009007002010B504484B1C02D101F0B4FBCD
:1041500010BD01F08FFBFBE790070020F7B5036867
:10416000019105000021987902F040FB1C4B1D4C89
:1041700006CB200001F0BEFB019B1F0A6B461E7997
:104180002B685B79012B1AD131002000FF2601F04A
:10419000E1FB0199B143014301912000390001F095
:1041A000D9FB019B00021E402B6806430121987930
:1041B00002F01CFB200001F0B9FBB0B2FEBD3900DB
:1041C000200001F0C7FBFF2701990002394001439D
:1041D00001912000310001F0BDFB019EBE43E3E7E9
:1041E0006C03002090070020F7B50F001E000500AB
:1041F000036801929879002102F0F8FA0B4C0C4BFD
:10420000200006CB01F076FB3900200001F0A2FB74
:1042100032002000019901F0A2FB2B68012198795E
:1042200002F0E4FA200001F081FBF7BD90070020C6
:104230006C030020024B034A1A6000229A807047E8
:104240006C03002000093D0010B502F06DF810BDB0
:1042500010B502F0BFF8034B1B68002B00D0984745
:1042600010BDC0467803002010B502F093F810BDD1
:1042700070B505000C0002F057F8401B84428041E5
:10428000404270BDF0B5C1B021AC070020000E0067
:10429000150000F0D3FD23781F93FFF7D5FF3449B5
:1042A0000200012001F044F8380007F04EF83B000E
:1042B000020030490A2001F03BF8300007F045F8D1
:1042C000330002002C490A2001F032F8280007F0E0
:1042D0003CF82B00020029490A2001F029F80120AE
:1042E0001F9A274901F024F8260000271F9B043657
:1042F000BB4234D80020234901F01AF826231D932D
:10430000214B24A9702268461C9306F0C2F821991B
:104310006268A3681D4800F0E0FD14231C4E24A928
:10432000702268461D931C9606F0B3F821996268C6
:10433000A368184800F0D1FDCA21174A174B49005D
:10434000D152684624A970221C9506F0A2F83000CC
:1043500021996268A36800F0F1FB41B0F0BD0A202A
:10436000F36B32680E4900F0E3FF0137BEE7C04649
:1043700078DB000091DB00009CDB0000A7DB000085
:10438000B2DB0000BCDB00006C290020C5DB0000B4
:1043900092290020CBDB0000BC130020EA150000AE
:1043A000BEDB0000F7B5019368231500012207006A
:1043B0000E000C4CFF33E2540B490C320B4806F054
:1043C000DCFF0B4B019AE7500A4BE6500A4BE550D5
:1043D0000A4BE250089A0A4BE250099A0433E25021
:1043E000F7BDC046BC130020CFDB0000E513002062
:1043F000EC150000F0150000F4150000F8150000A1
:10440000FC15000010B5FEF7C7FF022800D10130EF
:10441000B623024A5B00D05410BDC046BC13002036
:1044200000487047BC130020034A044B10B5D35812
:10443000002B00D0984710BDBC130020EC150000E5
:10444000F0B506000B000200BBB000200F00604971
:1044500000F06EFF31005F48FFF7D4FF002E02D05E
:10446000032800D07BE068235B4AFF33D45C002C38
:1044700018D10238451EA84100F0C9FE574B05006F
:104480005749186800F0D4FE002814D00022534B7E
:104490001A60FFF789F8504A524BD358002B0CD0C2
:1044A00098470AE0012C51D1033844424441451E4B
:1044B000A841E4B2C5B2002FE8D13D43EBB203936B
:1044C000002B40D0444D484BEB58002B01D098476F
:1044D0000390039B002B58D0444F78213B00444A63
:1044E00000951CA806F0D0FE2B005A21414A05A8D1
:1044F00006F0CAFEB62200235200AB546A3A3800D6
:104500003D490433FF3AFEF7ABFFC8282DD1B6234F
:1045100001275B00EF5428003B00384A1CA9FFF735
:1045200067F8C82844D1B62202235200AB543900A0
:10453000334A05A8FFF7CAF8C82803D1B6220323D7
:104540005200AB54039C20003BB0F0BD032809D0BF
:1045500003202C49FFF768FF00240125ABE7350055
:104560000024A8E700242500A5E79138FF380A2891
:104570000BD803F01FFF280A0A0A280A0A0A1A1A87
:10458000060003202049FFF74FFF002E05D16823C6
:10459000114AFF33D35C022BD5D101200D49FFF71F
:1045A00043FF1A48FFF760FE8CE700201849EAE74E
:1045B0009423FF33984209D0F823FF33984202D066
:1045C000673B9842E1D113496320DCE71249FBE7DE
:1045D000D7DB000072D80000BC1300207C03002051
:1045E000C0D40100F4150000F015000024140020D0
:1045F0000DDC00002BDC0000B3220000541400206E
:1046000085420000F8DB00005EDC0000102700009F
:104610006CDC00004DDC000081DC0000F0B50F0018
:1046200015001C0095B001003122234806F0A5FEBC
:10463000224E29223900300006F09FFEAB222900CD
:104640001F4806F09AFE072221001E4806F095FE3C
:1046500000214C2201A8009105F024FF0025002133
:104660000120FFF7EDFE041E09D017490220FFF7D5
:10467000DBFE164BF05C00F09DFB15B0F0BD0C208E
:10468000134900F055FE2B00124A5021684606F0EF
:10469000FBFD69462000FFF7C7FE01350E48FFF716
:1046A000E3FD0D2DDBD103200749FFF7BDFE0B48CD
:1046B000FFF7DAFDD2E7C04624140020BC13002027
:1046C000541400201C15002072D8000008160000A9
:1046D000FCDE000090DC0000983A000080EE36001E
:1046E0000023F0B587B01600414C04900591039368
:1046F0009A4208D13F4BE25C3F4B5343E318FC33F3
:104700009B6F002B3AD101F00FFE3C4F0121E0518D
:10471000059A0498FFF75EF805000390C82801D0B9
:10472000374BE05401F000FEE359C01A354B80B21C
:10473000E052354BE15A0A1C814200D2021C91B270
:10474000E2520191009033002A000A202F4900F024
:10475000EFFDC82D10D1002E0BD000202549264B8F
:10476000625C5343E318FC339867012301321A401B
:104770006254012007B0F0BD002EFAD11C4C244E2B
:104780001D4DA35D6B43E3181F00FC37BA6F002A71
:104790000AD00220039A1F4900F0CAFD1E4A0020D9
:1047A000A35C0133A354E5E77933FF331A70FFF7B5
:1047B0004BFDCD22B867A05D049968437A30FF3085
:1047C0005200001906F0D9FDA05D144B6843C018D3
:1047D000134A0599001906F0D0FD0220114900F096
:1047E000A7FD0120A35D01330340A355C2E7C046E6
:1047F000BC130020CD100000AC0700000C16000018
:10480000101600001216000014160000A1DC0000B3
:10481000CC100000D8DC0000CE1000001303000014
:104820000C060000EDDC000070B5FEF78BFC1F4E9F
:104830001F4C204DA35D6B43E318FC33986F002899
:1048400032D01D4900F0F4FC00282DD00321A35DD7
:1048500000206B43E3187933FF331B789942894179
:104860004942FFF7EDFD00281ED0A35D6B43E3181E
:104870007933FF331A780132D2B21A700F4BE05CF1
:10488000011C904200D2111CE15400200C4900F0A0
:104890004FFDA05D0B4B4543E9187A35FF350122EA
:1048A00061186019FFF71CFF70BDC046CD100000F5
:1048B000BC130020AC07000088130000161600008F
:1048C00008DD000013030000F0B5BFB0079115002C
:1048D0001E001549012800D0144909AF05223800EF
:1048E00006F04BFDB722124C5200A35A0BA8991C9C
:1048F000A152CD21079A013303920E4A9BB2019235
:1049000000930D4A230004950297490006F0BCFC71
:10491000002231000BA8FFF7E3FE0022074BE25410
:10492000074BE5523FB0F0BD21DD000026DD000061
:10493000BC1300206C2900202ADD0000B015000007
:10494000EA15000010B50C4C0C4AA544002402A83E
:104950002100019405F0A6FD094B0A4A0A4901A865
:1049600006F092FCC8222000084901ABFFF7ACFF1B
:1049700098239B009D4410BDA0FDFFFF5502000041
:10498000BC1300207CDD000059020000C9DD0000DE
:1049900010B50F4C0F4AA544002404A8210003942D
:1049A00005F080FD63235B4201930B4B0B4A0093A0
:1049B0000B490C4B03A806F067FCC82220000A49EB
:1049C00003ABFFF781FF9A239B009D4410BDC046B7
:1049D00098FDFFFF5502000010140020D0DD0000FC
:1049E00059020000F21300200CDE0000F0B5274C45
:1049F000274AA54400247CA821007B9405F052FDA1
:104A0000C622C82726002100520018A8179405F0D6
:104A100049FD204D7F0000214C2204A8039105F0A0
:104A200041FD2B78002B13D02B00183350211A4A4C
:104A3000009303A82B0006F027FC17AB18193A00C7
:104A400003A906F09AFC03A806F07FFC2418A4B280
:104A500001366835062EDED117A806F076FC002454
:104A6000FFAB4C3318180D4B0D4AC018047017AB30
:104A70000C497BA806F008FCC82220000A497BAB41
:104A8000FFF722FF094B9D44F0BDC046B4FBFFFF7A
:104A9000550200008C24002014DE000013FCFFFFF0
:104AA00031DE000059020000AFDE00004C040000BF
:104AB000F8B51500002368220F000F4914005C436D
:104AC0000E5D002E13D10D4B0D4EE3189B19010006
:104AD000180006F032FC0B4A33199B181F600A4B72
:104AE0002900E018801906F028FC0120F8BD0133E8
:104AF0000C2BE3D10020F9E78C240020D01000001B
:104B0000BC130020E4100000E810000070B50400A1
:104B100008000D0006F019FC80B20649002805D1F6
:104B20002200054B0130FFF7CFFE70BD2B002200A5
:104B30000120F8E7922900206BD6000084B0F0B580
:104B40000026C5B04B914C9231000322050020A8ED
:104B50004D931F9605F0A6FC072370224EA96846C8
:104B60001FAC229621961D931C9405F092FC4D9B40
:104B70004B994C9A444800F0B0F9B023434E5B0087
:104B8000F35C21AF002B06D02000414906F0CBFB9F
:104B9000002800D074E0082370224EA968461D93B7
:104BA0001C9705F076FC4B994C9A4D9B394800F0C8
:104BB00094F93800384906F0B6FB041E39D12A00B2
:104BC0001920364900F0B4FB354A6A9923A800F051
:104BD000AFF9239925A800F031F9324F29003800A8
:104BE00006F0A1FB00281FD1683044432E4B341936
:104BF000E4186C2229A9684605F04BFC289B2598EF
:104C00002699279A2468A047284BF35C002B06D0EE
:104C1000FA220120264B27495200FFF755FE45B0E6
:104C2000F0BC08BC04B01847013468370C2CD5D14F
:104C3000F5E73800204906F076FB00281AD1280055
:104C40001E4906F070FB002802D1FFF7CFFEE6E711
:104C500028001B4906F067FB002802D1FFF772FE0F
:104C6000DDE72800174906F05EFB002802D1FFF7B8
:104C70008FFED4E7CA2014494000FFF747FFCEE774
:104C800094201249FF30F8E7B7DE0000BC13002083
:104C90001C150020BCDE000021DD0000C0DE00008D
:104CA000D0DE00008C240020E4100000B0150000CD
:104CB000D7DE00009229002026DD0000AFDE0000D4
:104CC000C9DD00000CDE0000FEDE000016DF000083
:104CD000F0B500262A4C0700A54415000C0025223B
:104CE000310009A80593089605F0DCFB31004D2240
:104CF00014A8139605F0D6FB2249012F00D02249B3
:104D000006AF0522380006F038FB237808AE002BEA
:104D10002CD109221D49300006F02FFB2B78002BE7
:104D200005D02B0051211A4A13A806F0ADFAB7217D
:104D3000184B49005A5A501C585200920296164A73
:104D400001972C3128A806F09FFA059B134A00937F
:104D5000134913AB5BA806F097FA00225BA928A8B9
:104D6000FFF7BEFCF3239B009D44F0BD200006F03E
:104D7000ECFA0200272800D928222100CBE7C04600
:104D800034FCFFFF21DD000026DD0000FED6000020
:104D90002ADF0000BC13002039DF00007ADF0000AA
:104DA0000C06000010B513000A0001000120FFF7F7
:104DB0008FFF10BD70B5174C0600A54400244D228E
:104DC000210005A8049405F06DFB2100124A1AA8E1
:104DD000199405F067FB114D51212B00104A0096E4
:104DE00004A806F051FA0F4B0F4A02930F4B1049DB
:104DF0000193104B19A8EB5C00932B0006F044FACA
:104E000020000D4919AB04AAFFF762FFB0239B00F5
:104E10009D4470BD40FDFFFF55020000BC13002003
:104E20008ADF0000101400209EDF0000F213002033
:104E3000590200000816000021E00000F0B50D0046
:104E4000A5B005AC7C2200210390200005F02AFBD0
:104E5000280006F07AFA83B20293002B09D123705E
:104E60007C2221000398638005F013FB039825B092
:104E7000F0BD012680B22B180193019B262128004A
:104E80005A1B771E05F0ECFA002800D10198B300F8
:104E90001D5100230370019B451C984203D001362D
:104EA000102EEAD10E27260000250137FFB2019B04
:104EB00072683D2170689A1A05F0D2FA002803D171
:104EC000EFB2029B2770CBE700230135037001305E
:104ED00030640436AF42EAD8F3E784B0F7B50B93F9
:104EE00029AB1B7809AD0700099101936A60002A7C
:104EF00018D01378002B15D02E0000242B780093A7
:104F0000009BA3420ED97068390006F00CFA0436F3
:104F100000280BD1019A1034A40029592898013A8D
:104F200006F02BFAF7BC08BC04B018470134E7E7D9
:104F3000F0B504008DB0080017000D0006F005FA6A
:104F400000212422019003A8029105F0ABFA380059
:104F500006F0FBF902ABC6B232003900581C05F06E
:104F600098FA222302AA02A913702800721853701B
:104F700006F017FA002825D0019B8019ED183A2178
:104F80002A1A05F06DFA00281CD00130017820297A
:104F900015D0092913D06E295DD017D85B2936D0DA
:104FA000662953D0222944D0030005220626197809
:104FB0002C2955D12060181AA080A2711CE0013064
:104FC0008542E3D800232360A38014E074293AD0FB
:104FD000030001227B29E8D19D4207D9597801338A
:104FE0007B290CD10132D2B2002AF5D12060181AE7
:104FF00001230130A080A37120000DB0F0BD7D29F8
:10500000EAD1013AEFE75D2903D1013A08E0030054
:1050100001229D4207D9597801335B29F3D101322E
:10502000D2B2002AF5D12060181A01300223A080E4
:10503000E1E7461C3000AA1B05F012FA801B03238F
:105040002660A080D7E704232060BDE70523206009
:10505000A380013BCFE704232060A3800533CAE788
:105060007D29A7D0AB42A5D2597801332E299ED1F4
:1050700032009CE7F0B50026504C0F00A544040018
:105080003100150005A82522049605F00BFA310021
:105090004D2230A82F9605F005FA3100392210A8CC
:1050A0000F9605F0FFF93100392220A81F9605F070
:1050B000F9F9237804AE002B00D073E00922300008
:1050C0003F4905F0E6F93B78002B05D03B00512124
:1050D0003C4A2FA806F0D8F83B4C3C4BE358002B39
:1050E0000DD0984705F0F0F8394A0090019114214D
:1050F00077A806F0C9F877A91FA806F0F9F8354B8C
:10510000E358002B0DD0984705F0DEF8324A0090A6
:105110000191142177A806F0B7F877A91FA806F027
:10512000E7F8B0235B01E358002B0AD0984714211D
:1051300003002A4A77A806F0A7F877A91FA806F067
:10514000D7F81FA806F001F900280AD01FAB1818DD
:105150000023013803703D21214A1FAB0FA806F040
:1051600093F8B7225200A35A44A8591CA152CD214A
:105170001C4A0093019223001B4A0296490006F044
:1051800083F80FAB0193194A2FAB1949009577A803
:1051900006F07AF8002277A944A8FFF7A1FA154B88
:1051A0009D44F0BD200006F0D0F80200272800D969
:1051B00028222100300006F0E0F884E7C4FBFFFF5E
:1051C00028E000002ADF0000BC130020F8150000D2
:1051D00032E00000FC15000040E0000051E000005B
:1051E0005FE0000021DD000074E00000B5E0000099
:1051F0000C0600003C04000070B504000D0001F036
:1052000093F80123256060602000237270BD10B503
:10521000037A0400002B01D1002010BD01F084F8B6
:1052200063682268C31A9342F6D960600120F4E7EC
:1052300070B5050000200C00854205D001F074F81F
:10524000401B84428041404270BD10B514000020D4
:1052500000F002F8200010BDF0B51400182285B04F
:105260004243029003202A4B0E009A18D36A18403A
:1052700002280BD0936A516A5B1A013B01D5126A6E
:105280009B189C4202DD002840D01C00201E3DD00F
:105290000023029A0193183353430393039B1C4941
:1052A000C818826A436AD31A013B01D5026A9B1867
:1052B000039A8A18106A0090009D506A281A984232
:1052C00001DC536AEB1A25009C4200DD1D0018200A
:1052D000039B641BCF18029B7A6A01334343CB18AC
:1052E0005868310080182A0005F0D3F8019B761920
:1052F0005B1901937B6A009A5D197D627B6A9A4211
:1053000001D100237B62002CC8D1019805B0F0BD0B
:10531000240000200A0010B5002905D000228B5C73
:10532000002B01D00132FAE7FFF796FF10BD000015
:105330000EB4002170B50400AFB033AD40CDB02243
:1053400002A8019105F0AEF82B003200B42101A8AB
:10535000009506F001F9601E1C4C18280ED803F0C9
:1053600029F81E20220D0D0D0D0D0D2426282A2CA6
:105370000D0D0D0D0D2E300D0D0D320021000020F4
:10538000FFF7C8FF01A90020FFF7C4FF210000209C
:10539000FFF7C0FF2FB070BC08BC03B018470C4922
:1053A000EDE70C49EBE70C49E9E70C49E7E70C4965
:1053B000E5E70C49E3E70C49E1E70C49DFE70C4975
:1053C000DDE70C49DBE70C49D9E7C046D4E0000033
:1053D000DCE00000E4E00000ECE00000F4E00000AD
:1053E000FCE0000004E100000CE1000014E100001A
:1053F0001CE1000024E100002CE1000010B50400D5
:10540000C06805F023F80623E05E002802DB0021D7
:1054100001F0BCF9200010BD10B504000623C05EE9
:10542000002807DB012101F0B1F900210623E05E2D
:1054300001F0DCF90123637010BD70B50500C06890
:105440000E0005F003F82B7CEC7CE41A631E9C41F3
:1054500003347443A4B22000AC8004F0EDFFE86094
:10546000002805D02200002105F01CF86E8070BDD8
:10547000A8806880FBE70322F8B58B110D118E1010
:105480001640134015400A40467482740026FF22DD
:105490008A427641C268C47C077CC3740574067076
:1054A000002A0AD0E21B5B1B51424A4159424B4140
:1054B0009A4202D04188FFF7C0FFF8BDF8B5C36833
:1054C0000400002B00D1F3E096256D00666900F022
:1054D00031FF864202D900F02DFF606100F02AFF03
:1054E0006369C01AA842F1D372B60622A35E1822DD
:1054F000012053436F4FA688FA185268DB5D904035
:10550000E268DB0115789619511C6B4A9F186B4AAB
:105510009B182278002A00D058E0803294463860E8
:10552000C046C046C046C046C046C046C046C0464B
:10553000C046C046C0462A4200D192E0C046C0469E
:10554000C046C046C046C046C046C046C046C0462B
:10555000C046C046C046C046C046C046C046C0461B
:10556000C046C046C046C046C046C046C046C0460B
:10557000C0461860C046C046C046C046C046C04689
:10558000C046C046C046C046C046C046C046C046EB
:10559000C046C046C046C046C046C046C046C046DB
:1055A000C046C046C046C046C046C046C046C046CB
:1055B000C046C046521000D170E0D2B2C046C046CC
:1055C000C046C046C046C046C046A8E780229446B2
:1055D0003860C046C046C046C046C046C046C04609
:1055E000C0462A4221D0C046C046C046C046C0463A
:1055F000C046C046C046C046C046C046C046C0467B
:10560000C046C046C046C046C046C046C0461860F8
:10561000521020D0D2B2C046C046C046C046C04696
:10562000C046C046C046C046D2E71860C046C04625
:10563000C046C046C046C046C046C046C046C0463A
:10564000C046C046C046C046C046C046C046C0462A
:10565000C046C046DCE7B14226D20D786246013131
:10566000B6E71860C046C046C046C046C046C04601
:10567000C046C046C046C046C046C046C046C046FA
:10568000C046C046C046C046C046C046C046C046EA
:10569000C046C046C046C046C0466BE7B14203D2D2
:1056A0000D78624601313AE762B600F043FE606170
:1056B000F8BDC0464CE200001844004114440041CB
:1056C00070B5437804000D00002B06D00623C05EA1
:1056D000002802DB002101F059F86378E580002BF7
:1056E00007D00121280001F051F80021280001F025
:1056F0007DF870BD70B5040000200E001500190083
:1057000060702072E06060612000FFF7B4FE31003D
:105710002000FFF792FE29002000FFF7D1FF2000B4
:1057200070BDF0B505AC257844888C4216D9047A52
:10573000002C05D0624363436543120A1B0A2D0AFD
:10574000C47C077CC668A74209D103246143711851
:10575000047C0A55427C8B54837CCD54F0BD890077
:10576000711800260E55F3E770B50B004D1C017A39
:10577000EDB20400A9421AD0C66800200139C9B2AE
:10578000814205D0FF2B0ED1094802F0B1FE80B254
:105790000023A1889AB2914208D9F25C42431212C6
:1057A000F2540133F5E728020138EEE7257270BDA7
:1057B000FFFF00000378034A9B009B5800224933F7
:1057C0001A70704730080020F0B5040085B01E0044
:1057D0000AAB1B78103001930BAB1B7817000293B8
:1057E0000CAB1B780D00039300F000FA200024306E
:1057F00000F0FCF9220000234832A363E363236432
:1058000063641370537063729D4205D12221084B6B
:10581000084A094804F09CFD2000019B2560637143
:10582000029B2771E371039BA671237205B0F0BD43
:1058300034E1000045E1000099E1000030B50400CA
:1058400085B002AD00680291039201F06BF96B79AB
:10585000227AE17920680093002301F047FA297940
:10586000029A206801F082F9206801F051F905B030
:1058700030BD000010B54B1C0BD0102909D0EFF340
:10588000108472B6102905DD02238372002C00D12A
:1058900062B610BD0123827A1A43827218224A43EB
:1058A0000449891816228A569340C2681343C3607C
:1058B000ECE7C0464CE200004B1C17D0102915D075
:1058C000837A9B0712D4EFF3108272B618234B43EE
:1058D0000749C9180123897D49B28B40C1689943A2
:1058E000C16000D18172002A00D162B67047C04603
:1058F0004CE2000007B5837A00910192002B07D09B
:105900009A070AD5EFF310835A425341C37272B615
:105910000099019AFFF792FF07BDDB07F8D5C3682E
:10592000014A9BB29360F3E700180040837A002B92
:1059300005D09A0704D5C37A002B00D062B6704711
:10594000DB07FCD5C368024A9BB2D360F7E7C046C9
:105950000018004010B5006801F0EDF810BD70B5FA
:1059600005000C008E18B44206D021782800FFF7FD
:10597000F1FF20700134F6E770BD000010B500683B
:1059800001F008F903000020834203DB0C3043439D
:10599000014A985810BDC04604E2000010B50068E6
:1059A00001F0F8F8002805DB0C2343430348C01836
:1059B000406810BD01204042FBE7C04604E2000001
:1059C00010B5006801F0E6F8002805DB0C2343431E
:1059D0000348C018806810BD01204042FBE7C04664
:1059E00004E20000F0B506001036050089B0300072
:1059F00000F052F9002869D12F002437380000F058
:105A00004BF9041E5FD12800FFF7DAFFC1B2300066
:105A100000F022FA0221300000F042FA2C49012263
:105A2000300000F015FA2B7C2A4A9B0028009D507C
:105A3000FFF7B4FFC1B2380000F00EFA02213800BF
:105A400000F02EFA6B1DDB7F224A9B0028009D5040
:105A5000FFF794FF0123010022000293300023008E
:105A6000049403940194009400F03EFAA863280083
:105A7000FFF784FF01230200210001933800230077
:105A8000049403940294009400F02EFAE8634020FA
:105A900004F0D2FC2A0048322864079200280BD078
:105AA0000123137068646B6C10221819E96B1034B1
:105AB00004F0EFFC402CF6D1079B1B78002B05D19E
:105AC000380000F083F9300000F080F909B0F0BD33
:105AD000B55700003008002070B5437A0400002B51
:105AE00003D1012243814272C360230048331B78F3
:105AF000002B02D12000FFF775FF18263300082184
:105B000020790D4D4343EB18595600F0B3FE330096
:105B10000821A0794343EB18595600F0ABFE082149
:105B200060794643AD19695600F0A4FE034B20008E
:105B300006CBFFF783FE70BD4CE200002808002072
:105B40001FB500240D4B0E4A9C801A60012301935F
:105B50001C3300931C220B49029401330A48FFF7BF
:105B600033FE022302932333009324220749019436
:105B700001330748FFF728FE1FBDC0462808002054
:105B800000093D00280D002090070020200D002076
:105B9000DC070020084B1968002909D1EFF31080B9
:105BA000064A002803D172B6BFF35F8F013111702E
:105BB0001A6801321A607047E8090020E4090020E1
:105BC000084B1A68002A0CD01A68013A1A601B6840
:105BD000002B06D1044B1B78002B02D0BFF35F8F44
:105BE00062B67047E8090020E4090020FF2310B5E1
:105BF0000370C023002104009B004170418083801A
:105C00000C22083004F04EFC200010BD01230A00D5
:105C100010B51A40194208D00C4A13700333437070
:105C20008368002B00D0984710BD0223194204D08E
:105C300006490B70C3684270F3E704231942F3D09E
:105C4000024A1370033343700369EAE74E48004188
:105C500010B5FFF79FFF0C4B1B8C1B071B0F0B2B6B
:105C60000FD80A4A9900885800280AD00F240849FA
:105C70000A78A24313430B70064B1978C9B2FFF799
:105C8000C5FFFFF79DFF10BD00480041EC09002053
:105C90003F4800414E480041F8B500230278050016
:105CA00018000B2A77D93C4E2B702B780B2B07D87A
:105CB00001229A403168114204D001332B70F4E77D
:105CC000012068E0FFF766FF3768344C002F2BD1C6
:105CD0002022334B334859690A435A611022D9694B
:105CE0000A43DA6102222388390093432380238800
:105CF000013A134323802C4B6063BF32A36304F04B
:105D0000D1FBC0223900284804F0CCFB4022C1203E
:105D1000264B80002380264B26491A601A581140D2
:105D2000C02212040A431A5001231A00297830684D
:105D30008A40024332600F261F4A880085501F4860
:105D400031400278B2430A43027002201C4A1178A3
:105D500081431170117819431170297822698B40A1
:105D60009A43226160223F21636C934363642A79E2
:105D7000636C0A40134912020B400321134363640E
:105D80006A79636C0A40104992050B4013436364BF
:105D9000FFF716FF0020F8BDE00900200048004191
:105DA000000400402009002060080020020F0000CD
:105DB00000E100E0FFFF00FFEC0900203F48004148
:105DC00040480041FFC0FFFFFFFF3FFF70B50500E7
:105DD000FFF7E0FE6B785CB2062B2BD02B78022409
:105DE0000B2B27D801229A40144B1968114221D05D
:105DF0001968914319601B68002B14D14022104B85
:105E0000DA67BFF34F8FBFF36F8F21000D4A0E315A
:105E10001388A34313800C4BDA698A43DA615A6909
:105E200010318A435A6100242B78084A9B009C5009
:105E3000FF232B70FFF7C4FE200070BDE009002097
:105E400004E100E00048004100040040EC090020AB
:105E50000232920011507047037870B505000C00B3
:105E600001710B2B14D8FFF795FE29780F250948EF
:105E700029400378084AAB430B4303703F23516C1E
:105E80001C40064B240219400C435464FFF798FE53
:105E900070BDC0463F48004100480041FFC0FFFFC1
:105EA000037870B505000C0041710B2B14D8FFF777
:105EB00071FE29780F25094829400378084AAB4329
:105EC0000B4303700323516C1C40064BA40519407F
:105ED0000C435464FFF774FE70BDC0463F48004158
:105EE00000480041FFFF3FFFF0B587B001930CABC6
:105EF0001E780DAB1B78050002930EAB1B78007863
:105F0000039310AB1F78049105920B2802D900204F
:105F100007B0F0BD6B78062BF9D0AB78002B00D121
:105F200079E01021080004F07DFA0028EFD02B78EA
:105F30003B4A1B019B181A00D168002904D0D16884
:105F40008B4201D0D268F7E7D06001220223AA7009
:105F5000964203D0DB18022E00D0130006240188DD
:105F6000114301800188A143018001881234A143BB
:105F70000180153C018826402A4C360221400E4300
:105F80000680029E0188284C16402140B6020E432E
:105F90000680039E0188254C16402140F6020E43E0
:105FA00006800188224E3A40314012030A430721FD
:105FB00002800F9A114002884903D204D20C0A438E
:105FC00002806A4692884280049A4260029A002ABD
:105FD00008D0019A41685A43002F01D00F9CA2407B
:105FE0008A184260059A8260039A002A09D0019AB1
:105FF00084685A431300002F01D10F9A9340E3188D
:1060000083600023EA789A4203D02B78044A1B016C
:106010009B18C3607CE7024B0001C01895E7C0469F
:1060200020090020FFFCFFFFFFFBFFFFFFF7FFFF42
:10603000FFEFFFFF10B5024802F002F810BDC046A6
:106040001C0A002013B5114C1149200000F0CAFCB5
:106050001049114800F0C6FC1049114800F0C2FC7C
:106060001049114800F0BEFC1049114800F0BAFC7C
:106070001049114800F0B6FC0123032221000092D0
:10608000019300220D4801F071FF13BD180D00208F
:1060900000080042000C00421C0D002000100042CD
:1060A000200D002000140042240D002000180042A2
:1060B000280D0020001C00422C0D00201C0A00208E
:1060C000F7B50092182216264243544B07009B183E
:1060D0009E570191731C52D0514B524C1D68002D9C
:1060E0002BD129004422504804F0DCF92900442235
:1060F0004E4804F0D7F910224D4B4E491D604E4BCF
:10610000CA67BFF34F8FBFF36F8FC021C120490013
:106110005A5080001958FF35A94319501A60474B4F
:10612000474A5A8002232278134323706378DB099D
:10613000012BFBD001223A4B1A6001231D00B54010
:1061400062692A436261019A002A18D0102E1FD179
:10615000E2781343E370009B042B0BD8180007234D
:10616000A2789A4302F026F9030C0E1012000523C0
:106170001343A3702D4B019A1A64ADB2E560F7BDCD
:106180000423F5E70323F3E70223F1E70123EFE715
:1061900038000027002100F06DFB254B22499C466A
:1061A0001B68BA00BB421DD16046013303601F4B20
:1061B0008D5001999950072E19DD32000123083ABC
:1061C00092000720904017499B005B189969814312
:1061D000996100990429D0D8080002F0EBF80B125D
:1061E00015181B008858A842E1D00137D9E70023D1
:1061F000B200E6E70521986991400A0002439A61DE
:10620000BBE704219869F7E703219869F4E70221C5
:106210009869F1E701219869EEE7C0464CE2000079
:10622000B80D002000180040740D0020300D002033
:10623000BC0D002004E100E000E100E0000C0040A3
:106240000540000070B50024094D0A4B1B68A342AD
:1062500000D870BD084E2A6833691A4205D0074B32
:10626000A200D35898472B68336101340435ECE71A
:10627000740D0020BC0D002000180040300D0020DF
:10628000054B10B51B6C002B00D098470123034A27
:10629000D1780B43D37010BD300D002000180040A2
:1062A000FEE70000034B10B51B68002B00D0984799
:1062B00010BDC046C00D00200F4A1048110010B597
:1062C0000F4B824202D0934209D11300824209D17E
:1062D00000F084F801F0AEFFFEE710CB10C1814260
:1062E000FBD3F3E7074A8B42F2D00021064B9A42D8
:1062F000EED202C2FBE7C0460000002020030020CF
:10630000B0EA000020030020E429002010B500F0CE
:1063100062F8002801D100F053F810BD014B18605D
:106320007047C046C00D0020014B18687047C0463A
:10633000C40D0020F7B51348012284461249134CBE
:106340008E68636805689B0E1340019288686268D6
:10635000019F920E3A4067463F6893420ED1BD427C
:106360000CD186420AD35B19FA254868AD00861B1A
:1063700007486B437043000DC018FEBD3D0013007D
:106380000600E3E7C40D002010E000E000ED00E0AF
:106390005555000070B5041E11D0FFF7CBFFFA264B
:1063A0000500B60000F016F8FFF7C4FF401BB0422E
:1063B000F8D3FA23013C9B00ED18002CF4D170BDFA
:1063C00010B5034A13680133136000F0D1FA10BD11
:1063D000C40D002070470020704700001E2270B5D9
:1063E00046484749436893431C3A13434360082394
:1063F0008C6923438B61434C434B9C829C8A14439E
:106400009C82DC681442FCD00124404A1470157848
:10641000254203D055786DB2002DF8DB012494603D
:10642000547864B2002CFBDB394C5460547864B26D
:10643000002CFBDB8224E4015480547864B2002CED
:10644000FBDB02249C840E34DD682542FCD0314CF9
:10645000DC621024DD682542FCD09D8C2E4C2C4340
:106460009C841024DD682542FCD002249D8C80266B
:106470002C439C844024DD683542FCD0DD682542F5
:10648000F9D01024DD682542FCD0002494605478B3
:1064900064B2002CFBDB214C5460547864B2002CB5
:1064A000FBDB1C6A1E4D2C4080251C621C6AAC4321
:1064B0001C62032393601B4B536053785BB2002B29
:1064C000FBDB0023FF240B72174A4B728B72CB72DB
:1064D000164B1A60164B174A1B6811689A065B0127
:1064E000C90E2340520F12020B431343124A138565
:1064F000802342681343436070BDC04600400041A2
:10650000000400400C06000000080040000C0040A1
:1065100001050100B905FF7D040A00000007030022
:10652000FFFCFFFF03060100006CDC029C00002062
:10653000246080002060800000400042FA212E4B41
:1065400010B51868890001F049FF802301385B0409
:1065500098424FD229492A4A4860C020136A00064F
:106560001B021B0A0343136200238B6007330B607B
:106570008021136A09061B021B0A0B431362FC22CB
:10658000204B196A0A431A62FF22196A12020A434F
:106590001A62A022196AD2020A431A621A4B1C001C
:1065A0005A7852B2002AFBDB184A5A80184B1A005C
:1065B000597EC9090129FBD0C8218900998005218C
:1065C000D970537EDB09012BFBD0C02300205B0177
:1065D0001361907000F022F863785BB2002BFBDB54
:1065E0000C4B0D4A6380D379DB09012BFBD041238F
:1065F000537010BDFEE7C0469C00002010E000E094
:1066000000ED00E000040040000C00401E400000CF
:106610000040004221400000004800421F4900B5F0
:106620000B004A7ED209012AFBD001380A282FD854
:1066300001F0C0FE1B2E2E2E2E2E062E2E24110013
:106640001A6917490A400F211A615A788A431100C2
:1066500001220A4310E01A6911490A400F211A6108
:106660005A788A4311000322F3E71A690C490A4059
:106670000F211A615A788A435A7000BD1A69084975
:106680000A400F211A615A788A4311000222E0E77A
:10669000F022196912050A43F3E7C04600400042A0
:1066A000FFFFFFF010B5040006285ED007285ED07B
:1066B000052800D80E340121200000F0DBF80E2C54
:1066C0000DD12D4B1900DA79D209012AFBD0022015
:1066D0001A7882431A70CB79DB09012BFBD027494A
:1066E0000B004A7ED209012AFBD018206043244CBB
:1066F0000A692418207C1F242040A24302430A6117
:106700005A7ED209012AFBD0022219780A431A7054
:106710005A7ED209012AFBD00222197B0A431A733E
:1067200001221A765A7ED209012AFBD00222197B55
:106730000A431A731A7ED207FCD5588B80B25A7E50
:10674000D209012AFBD002211A788A431A705A7E94
:10675000D209012AFBD00B4B1A680B4B1B689A42DB
:1067600002D006D9D31AD84010BD1424A3E71524AB
:10677000A1E79B1A9840F7E700480042004000421A
:106780004CE20000A0000020A4000020182310B557
:1067900008245843134A13181C57013412D00124FB
:1067A0005B6882569C4003290CD808000E49D20130
:1067B0005218D318403301F0FDFD0210060B0221E0
:1067C0001970546010BD0621197054609461F9E786
:1067D0000621197054605461F4E702211970946025
:1067E000F0E7C0464CE20000004400411823F0B539
:1067F00008245843114A13181C5701341BD0012692
:1068000035005F688356BD400D4ADB019A189068D9
:1068100005420BD10C00601E8441D2194032107821
:1068200034400336A400B04320431070044A9B1840
:10683000002901D15D61F0BD9D61FCE74CE20000E3
:1068400000440041182310B50824434307490020A1
:10685000CA181457013408D05B560549DB015B1890
:10686000186A5368D8400123184010BD4CE200005C
:1068700000440041182370B5082643432A4AD5181E
:10688000AE573400013607D0072907DC00291DDA8E
:1068900001314C424C416442200070BD0B00083B6A
:1068A000DBB20024032BF7D8092903D12100FFF71D
:1068B0006DFFF1E70A2904D10839FFF767FF0024CB
:1068C000EAE700240B29E7D10A39F0E76C680125D3
:1068D00020009B56C9B262082840DB012C4211D02F
:1068E00012480E351B189A183032107809012840CA
:1068F0000143C9B2117041221B19403319780A4370
:106900001A70DCE70F26094D5B199A18303215789A
:106910001B19B543294311704122403319780400F3
:106920000A431A70B8E7C0464CE200000044004138
:10693000F8B505000E0017000024BC4208D02B68F3
:106940002800315D1B689847002801D00134F4E726
:106950002000F8BD014B18607047C046A800002019
:106960000122024B52421A607047C046A800002024
:10697000164A10B51368591C27D0013B1360002B31
:1069800023D172B68122124B92000433934213D367
:10699000104A01211000147D0C42FCD02021148BE0
:1069A000FF319B085B0021431183D3610A4B1380A5
:1069B0000123027D1A42FCD0BFF34F8F074B084AD8
:1069C000DA60BFF34F8FC046FDE710BDA80000207E
:1069D000002000000040004102A5FFFF00ED00E0A4
:1069E0000400FA05016070479446F0B505AC2578BF
:1069F0009C1E621E94416246066892073768240610
:106A00003A4322430724326000682140AD0100244C
:106A100042682943022B00D05C030A4322434260B0
:106A2000F0BD30B5C0250368AD031C6812052A40CF
:106A30002243C0240904A40221400A431A600368C7
:106A40005A6814435C6030BD0123026811680B432F
:106A5000136003681A68D207FCD4DA69D207F9D444
:106A600070470223026811680B4313600268D36900
:106A70009B07FCD4704703681A7ED20702D41A7EA3
:106A80009207FCD57047002203685A837047036859
:106A9000187E4007C00F70470368187EC009704712
:106AA000802302685B42117E0B43137670470368B4
:106AB000588B8007C00F704702230268518B0B432D
:106AC000538370470368187EC007C00F7047036880
:106AD000188DC0B2704703681A7ED207FCD589B200
:106AE000012019857047012203689A7570470122B9
:106AF00003681A7570470123026811680B4313601D
:106B000003681A68D207FCD4DA69D207F9D470474F
:106B10000223026811680B4313600268D3699B0764
:106B2000FCD470470368DA699207FCD402211A6822
:106B30008A431A6070470268936A5B0A5B020B43E0
:106B4000936203681A7E5207FCD5986AC0B27047F8
:106B500010B50548490001F041FC80B2002801D081
:106B6000013880B2C0B210BD006CDC0270B50C0000
:106B70000126110063080268334034401568240779
:106B80005B0723432B4313600468FFF7E1FF207387
:106B900070BD00000368104A934213D00F4A93421D
:106BA00012D00F4A934211D00E4A934210D00E4A8F
:106BB00093420FD001200D4A4042934201D106304A
:106BC00040B270470020FBE70120F9E70220F7E719
:106BD0000320F5E70420F3E700080042000C004220
:106BE000001000420014004200180042001C004245
:106BF000F8B5FFF7CFFF00282CDB1D4BC00018189D
:106C000005230479C3560320FF221840C0008240A8
:106C1000C021D2438140002B1DDB1F2501201D40D8
:106C2000C026A840134D7600A851C0269B089B00A3
:106C30005B19B6009F593A401143995128603F2390
:106C400023408024E4011C430B4B5C805A7852B2F1
:106C5000002AFBDBF8BD0F200340083B07489B08D8
:106C60009B001B18D86902401143D961E7E7C04671
:106C700054E6000000E100E0000C004000ED00E000
:106C8000F8B504000F0016001D00FFF7B1FF20004B
:106C9000FFF7DAFE1C21BB000B4071072268090CCC
:106CA0000B431360842322689375012F1AD110219E
:106CB000012E00D008390C4B69431868C00001F060
:106CC0008DFB0722216802408B895203DB04DB0C19
:106CD00013438B81226803049089DB0C400B400333
:106CE00018439081F8BDC0469C000020F7B5050010
:106CF000019308AB0C0016001F78FFF7FCFE28007C
:106D0000FFF776FFC021C022890224040C409203C1
:106D1000BF073605274316403E430C2707222B6842
:106D20003E431E60019B296813401A0080239B028A
:106D300013434B602A68D3695B07FCD4F7BD3F203F
:106D4000704713B56B460268D97107335468190050
:106D50000122A04716BD10B50221006900F028FCF1
:106D600010BD10B50321006900F038FC10BD000013
:106D700010B51300084A0400D279002A03D1012378
:106D80000020636010BD0A000069032100F01EFDB1
:106D90000028F4D0F6E7C046B000002010B5054C3E
:106DA00003002068421C04D11A68180052699047F9
:106DB000206010BDFC000020074A0300106810B5D9
:106DC000411C03D001235B42136010BD02211869EE
:106DD00000F0EEFCF9E7C046FC00002010B5037897
:106DE0004222023303700249024800F09BFD10BDAD
:106DF000B8000020E40D002010B5017803004278AF
:106E00000020A12908D1212A05D1174917481A3A8B
:106E100000F088FD012010BD2129FCD1202A13D1CA
:106E200011491248193A00F01DFC96220E4BD2006F
:106E3000196891420ED1DA7901231A420AD1FA2057
:106E4000FFF788FD0020E6E7222A06D19A78064B54
:106E5000DA71EAE7FFF784FDF4E7232ADBD15A88E9
:106E6000034B1A60D7E7C046B0000020E40D0020B5
:106E7000AC000020FA220021054B92009A60054ADE
:106E800008321A60044A59601A6119767047C04680
:106E9000C80D002084E60000E40D0020704770B5A6
:106EA0000F26CB1D02003240D5B22C000009303431
:106EB000092A00DD07341C705A1E994200D170BDAA
:106EC0001300EFE710B50400806903F0BFFAA06A71
:106ED00003F0BCFA200010BD10B50400FFF7F2FF6C
:106EE000200001F0CDF9200010BD000070B503298D
:106EF00008D1324B8000C058002802D00368DB68FC
:106F0000984770BD82291FD1C3B22D4D5A01AA18CE
:106F100091692C4C80010C40C0218905214391616D
:106F2000294908334018802150612A685B01D01834
:106F300004794942214301717020995C8143080022
:106F4000302101439954DCE70029DAD1C024C1B2D1
:106F50001B4E4A01B21893681A4DA4052B402343D7
:106F600093601A4B8001C0180B00506030680726F0
:106F700008335B01195CB1430E0001213143195400
:106F800091690D402C43946170240F495161195C43
:106F9000A1430C0010212143195491680C4CC318D3
:106FA0000C4080214903214391609168890B89033A
:106FB0009160402259790A435A71A2E7E80D0020F6
:106FC0009C120020FFFFFF8F100E0020D00F00202A
:106FD000FF3F00F0EFF3108303600123436072B6BC
:106FE00070470368002B02D162B6BFF36F8F704702
:106FF00037B5056904006846002D14D1FFF7EAFF94
:10700000019B621D013B02D3D57FEDB2FAE76846D2
:107010000193FFF7E6FF002D01D100203EBD206A5D
:10702000E369C01AFAE7FFF7D5FF22000025019BAC
:107030003432013B02D31578EDB2FAE7684601938A
:10704000FFF7CFFF002DE8D0206BE36AE9E70000EF
:10705000F0B5FF2501264268836811682B405B016B
:10706000CC186419A77AD3183E43A672C6689C68E8
:107070000B4FB60436093C4034439C6083682B4078
:107080005B01D2189468A40BA40394604022836827
:107090002B4008335B01CB1819790A431A71F0BDF4
:1070A000FF3F00F0F7B5056904000E0017006846C1
:1070B000002D43D1FFF78EFF019B601D013B5A1C41
:1070C0000BD0C27F591E002A05D168460193FFF7F5
:1070D00088FF2800FEBD0B00F1E768460193FFF72B
:1070E00080FFE369AF420AD0226A9A4207D95A1C4C
:1070F000E261A269D3181B7873550135F1E7226A62
:107100009A42E6D10023E361013368462361FFF729
:1071100061FF22000021019B671D013B3532581C95
:10712000D3D0F97710785E1E002805D020001170AA
:107130000193FFF78DFFECE73300F0E7FFF74AFF1D
:107140002000019B3430013B5A1C06D00278591EA6
:10715000D5B2002AB9D00B00F6E7684601930025A6
:10716000FFF73FFFE36ABD4202D0226B9A421CD870
:10717000226B9A42ADD100236846E3622361FFF798
:1071800029FF270022000021019B3437013B3532C3
:10719000581C9AD0397010785E1E00280DD020003F
:1071A00011700193FFF754FFEBE75A1CE262A26AE9
:1071B000D3181B7873550135D4E73300E8E7F7B5EA
:1071C00082684368D2B2110004000831186849018E
:1071D0004118C879C00729D501255201CD719B18E6
:1071E0009A6861699204920C002923D12262226A72
:1071F000002A41D0A26A656168465A60FFF7EAFE3C
:10720000342294462200019B671D013BA444353281
:10721000591C2DD06146FD770978581ECEB2002941
:1072200005D0019368461570FFF7DBFEF7BD03003C
:107230001670EDE72263226B002A1DD00022270082
:107240006261A26968465A60FFF7C4FE019B621D35
:107250009446013B34373032591C09D061463D70A9
:10726000C97F581ECEB20029DBD103001670F3E7A8
:1072700068460193FFF7B5FE2000FFF7E9FED5E76A
:1072800013B56A4600230C00D01DD371FFF7A6FD8D
:1072900023681818206001F02BF86B46D91D00F008
:1072A000F3FF236818186B462060D87916BD0000DC
:1072B00003290ED180220E4B62311B68FF31585CCE
:1072C000524202435A5468226339FF32FF399954BB
:1072D00070470129FCD18022054B24311B68FF3106
:1072E000585C524202435A5428222339FF32EDE7B8
:1072F0009C12002070B500252F4B01210400202096
:107300001D70FFF743FA01212020FFF76FFA2B4B86
:1073100001211F201D70FFF739FA01211F20FFF7FF
:1073200065FA2023264A0F20D1690B43D36101223D
:1073300024490B7813430B70234B19788143197040
:1073400006211D782943197020490D782A430A70B7
:107350001A7802401A70602219780A431A701C4B7E
:107360001C4A5A805A78D209FCD11B48FEF7D6FF36
:107370001A4D280000F0D0FF280000F0E3FF7F2125
:107380002B68C1201A7880000A401A7004221978EC
:107390000A430C211A701A898A4311491A810A5822
:1073A0001202120A0A5080220A6019787E3A0A43B1
:1073B0001A700123237070BD050E0020040E0020FA
:1073C00000040040584400413C44004159440041FD
:1073D000000C004006400000AD7D00009C12002023
:1073E00000E100E00078002810D00121084B1B6864
:1073F0001A898A431A810822198B0A431A830422A4
:10740000198B0A431A830022024B1A607047C04648
:107410009C120020941200200A000E498B699B0BDD
:107420009B038B610B680221FF33197298798239B3
:1074300001439971197A8907FCD57F20064B0240D8
:10744000997A8143114380229972997A52420A4370
:107450009A7270479C1200200050004110B50B79C1
:107460000C00002B0CD10800FFF7C6FC002801D04F
:10747000012010BD094A93699B0B9B039361F7E7B9
:1074800000F036FF210000F023FF0028F0D1034A6E
:1074900093699B0B9B039361EBE7C0469C12002012
:1074A000F7B50D001100832A19D1EBB2324C5A0105
:1074B000A21891693148AD010840C02189050143F6
:1074C00091612F4920686D187021083355615B0167
:1074D0001A5C8A43110040220A431A54F7BD022A5B
:1074E00045D1284AAB009858002802D003685B6950
:1074F0009847382000F0C0FE234B8027036000230C
:107500001D4E7F00421D036203614361C3614660FB
:107510008560C760D3772F32C362036304001370A2
:107520003800537002F088FF0190A061380002F02B
:1075300083FFEBB25A01A062B21891680F4808337A
:107540000840C021890501439160316807265B012D
:10755000585CAD00B0430600032030435854019BF3
:1075600020005360FFF774FD064B5C51B6E728001E
:10757000FFF7BCFCB2E7C0469C120020FFFFFF8F64
:10758000100E0020E80D0020B0E6000070B50500E8
:107590000124064BA200D258002A05D02100280061
:1075A000FFF77EFF0134F4E770BDC0460001002004
:1075B000084B8A00D05810B5002803D003689B6898
:1075C000984710BD044BC9B2490159188868800416
:1075D000800CF6E7E80D00209C12002010B50C008E
:1075E000FFF7E6FF00280CD0064BE4B219688023B1
:1075F000083464010C1962795B42134363710223FE
:10760000E37110BD9C12002070B5CBB2124A134832
:107610005C0189018918021951609168104D083385
:107620000D40802189022943402591609168890B92
:107630008903916001685A018A18167935431571DA
:1076400095796D06FCD55B01C918CB79DB07FCD5B4
:1076500000198068C0B270BDD00F00209C120020BD
:10766000FF3F00F070B5140040220B4B0D001B686B
:10767000FF3359790A435A710021FFF7C5FFA04231
:1076800000D9200000230549A34203D0CA5CEA5474
:107690000133F9E770BDC0469C120020D00F0020D6
:1076A00010B50C48C9B24901421893689B049B0C61
:1076B0003F2B0BD99468403B9B04A40B9B0CA40369
:1076C0002343936041188868C0B210BD93689B0B38
:1076D0009B03F6E79C120020F0B51C002F4B85B0F1
:1076E0001B6806000D000192002B54D02C4F3B78F4
:1076F000D9B2002B02D11F20FFF778F864233B702A
:10770000284BAA00D058002808D0036822005B68E4
:10771000019998470400200005B0F0BD2900300011
:10772000FFF746FF844204D929003000FFF740FFED
:10773000040029003000FFF7B3FF0121EBB21A4F1C
:1077400003935B010293029A3B6801989B18FF33F5
:107750005A7A0A435A72154BA9012200C91802F03D
:1077600098FE002CD7D029003000FFF721FF002819
:10777000D1D14021039B3A6808335B01D3181879B3
:10778000014319710121D971029BD318FF339A7AF1
:107790000A439A72BFE701246442BCE794120020B6
:1077A000040E0020E80D00209C120020D00F0020C5
:1077B00013B56B46DC1D22000123FFF78DFF012866
:1077C00001D1207816BD01204042FBE7F0B51C0036
:1077D0003A4B85B01B680E000192002B3FD08023EE
:1077E000DB019C423BD8364D2B78D9B2002B02D11D
:1077F0002020FEF7FBFF642300272B70314BB201E2
:10780000D3180293002C2CD02F4B1B680393FF231B
:1078100033401D0000930835039B6D015D19AB7962
:10782000DB0921D0294B2A49186800F0D7FD294BE4
:107830001721584300F0D2FD274BEA79920713D461
:107840009A5D002A01D10138F7D201229A55009B96
:107850005A011D4B9B189A69920B92039A6101275A
:107860007F42380005B0F0BD00221B4B25009A5521
:10787000402C00D940252A000199029802F009FE07
:10788000009BA9045A01104B890C9B18029A7F197E
:107890005A619A69641B920B92030A439A61009B96
:1078A000039A08335B01D3180222DA715979823ABC
:1078B0000A435A71019B5B190193A3E794120020BC
:1078C000050E0020100E00209C1200209C000020BD
:1078D00040420F0070110100070E002070B50C002F
:1078E0001D000D4BA601F618110030002A0002F011
:1078F000D0FDE4B2094A640114196661A36908491C
:1079000028000B40A361A169AB04890B9B0C890380
:107910001943A16170BDC046100E00209C120020CA
:10792000FF3F00F0F7B5104B0F001B7814000190DB
:10793000002B0CD10D4B16001D78002D09D00C4EDC
:107940000C48358828182D1902F0A3FD3580200039
:10795000FEBD002EFBD033007A1900210198FFF7FD
:10796000BDFF2D18361AF4E7901100209112002067
:107970009212002091110020F8B500200D00140093
:1079800000AF012A27D9D31D6A46DB08DB00D31AD2
:107990009D46080003F0D9FC6E4603230222002115
:1079A0000130400030707370A2420DD22878002858
:1079B0000AD0531CDBB20135B0549C4203D00232D2
:1079C000F154D2B2F0E7220031000448FFF7AAFFD9
:1079D000431E9841C0B2BD46F8BDC046E40D00202C
:1079E000F0B50025012785B0184B0E0069461F70C1
:1079F00004000095FFF744FC154B01A90B806A3B7E
:107A0000FF3BCB716E3B0B72009B320009334B8006
:107A10000E4B8D714F7108711D70092E0FD00D4ED8
:107A2000092237700C4F200000953D80FFF77AFF48
:107A300069462000FFF724FC3A8808493570200089
:107A4000FFF770FF012005B0F0BDC0469011002087
:107A500009020000911200209212002091110020D2
:107A6000F0B5CF7805000E0093B0022F09D1C98878
:107A70002B48FFF7B5FF441EA041C4B2200013B04D
:107A8000F0BD00F035FC310000F012FC002803D0FE
:107A9000C417241AE40FF1E7012F0BD1F288214912
:107AA000112A11D8D2B2002A0ED02800FFF73AFFCF
:107AB0000124E3E70400032FE0D1B378002B05D1C4
:107AC000F2881949032AEDD90A78EEE7022B06D18C
:107AD000B27916492800FFF74FFF0400CEE7012BCB
