:1020000000800020556900001D6900003D69000046
:1020100000000000000000000000000000000000C0
:102020000000000000000000000000003D6900000A
:1020300000000000000000003D690000A9690000E8
:102040003D6900003D690000152800003D69000061
:10205000E16800003D690000C162000041690000C4
:102060003D690000A96600003D6900003D6900006F
:102070003D6900003D690000B96600003D6900004F
:102080003D6900003D6900003D6900003D690000B8
:10209000000000003D6900003D6900003D6900004E
:1020A0003D6900003D6900003D6900003D69000098
:1020B0000000000010B5064C2378002B07D1054B1B
:1020C000002B02D0044800E000BF0123237010BDA4
:1020D0008003002000000000BCF30000044B10B59A
:1020E000002B03D00349044800E000BF10BDC046E8
:1020F0000000000084030020BCF3000084B0F0B5B1
:10210000A7B02F930C232C902D912E921D9370220B
:1021100023AB2FA968461C9308F095FC2C992D9AA7
:102120002E9B2E4800F0D3FB23A808F00BFC0A24BA
:10213000C6B2B442A44164420A2E04D9C820284938
:10214000400002F057FE0C2370221D932FA923ABF1
:1021500068461C9308F077FC2E9B2C992D9A2148F9
:1021600000F0B5FB23A808F0EDFB002305000A2EC4
:1021700000D9031C5B001C4A9BB21C4F2D049342E8
:102180000AD939000A2022002B0C00F0C5FAC82019
:102190001749400002F02EFE164B2E0C1B78002B28
:1021A0000FD09A201449FF3002F024FE33002200A1
:1021B00039000A2000F0B0FA27B0F0BC08BC04B027
:1021C00018471EAD3100280000F0FCFC0B4B07CD7A
:1021D00007C32A681A60074B1C70E7E738DB00006A
:1021E00043DB000073DB0000881300007FDB00008E
:1021F000A4DB0000AC030020CFDB0000B003002014
:1022000084B010B50024A2B024902591269221001C
:102210000B221FA827931E9408F01EFC0F23702288
:102220001D9327A91EAB68461C9308F00CFC269B47
:102230002499259A0D4800F04AFB0D491EAA0A2050
:1022400000F06AFA6B4678229B181B782100312B2C
:1022500000D00121052004F0A3FDC820054902F0AB
:10226000C9FD22B010BC08BC04B01847F7DB000061
:1022700000DC000011DC000084B010B5E6B068900E
:1022800069910A2012496B936A9200F045FAC622BE
:102290000021520003A8029108F0DEFB03F0CCFC01
:1022A0000400052004F0A8FDC82143425841094A12
:1022B00023000090490002A809F0C0FAC82002A932
:1022C00002F098FD66B010BC08BC04B01847C046C8
:1022D00014DC000027DC000010B500F091FA10BDFE
:1022E0000A0010B5F82806D910200B4900F014FA9E
:1022F00000F006FCFEE7F02804D91120074900F0A1
:102300000BFA10BDD52802D90F200549F7E70F2099
:10231000044900F001FAF4E752DC000069DC000037
:102320007ADC00008DDC0000F0B54649E3B01020F7
:1023300000F0F2F9444D280000F09EFB00F05AFA3C
:1023400000F0A4FB00F056FA404902000D2000F016
:10235000E3F90021092004F0F3FC0121052004F039
:10236000EFFC01210D2004F0EBFC0121052004F01D
:1023700017FD01210D2004F013FD354C6A462300A2
:10238000344E05950496103383CB83C21B681360CB
:102390000FCC002402F076FA012002F001FB2B00A2
:1023A000009602202C4A2D4903F0E4FB00940123FF
:1023B000032120002A4A02F021FAA023294D2100FE
:1023C0002800294A00949B0001F01AFC32A92748F2
:1023D00003F0D4F8264B35A9B2226846339308F0AF
:1023E00032FB339A349B2800329903F0F5FB0F201F
:1023F000204900F091F92EAC1F4D20001F4900F03C
:10240000E1FB26002B0007CE07C332681C4D1A6083
:1024100020001C4900F0D6FB2B0007CC07C3326814
:1024200019491A6019481A4A02F08CFC194A1A49CB
:102430001A4802F087FC1A4A1A491B4802F082FC2B
:1024400063B0F0BD9FDC0000E1220000BEDC0000B4
:1024500078DE0000D9220000C9DC0000DADC0000D0
:10246000FFFF0000C4030020F0050020EADC0000AC
:1024700074657374EEDC0000700800203075000095
:102480009C03002080EE36007922000016DD00005B
:10249000FFDF00001FDD0000012200002CDD000036
:1024A00034DD0000FD20000053DD000010B5114CAC
:1024B0002378002B1BD0104800F091FB002816D089
:1024C00022780123110019401A4211D1052004F08D
:1024D00067FC2378013BDBB22370002B07D10A2075
:1024E000064900F019F9C820054902F083FC10BD27
:1024F0001900EBE7AC030020B00300205FDD000013
:10250000FFDF000070B53948F8B000F068FB002824
:102510000FD0374B374A28211B8814A809F08EF9B1
:102520000B20354900F0F8F83449354814AA02F078
:1025300037FF344800F053FB002837D000252C4CDF
:1025400015202288304900F0E7F829004C2201A824
:10255000009508F081FAC6222900520015A81495AA
:1025600008F07AFA50212388284A684609F066F96B
:10257000C8212388264A490014A809F05FF9694652
:10258000244814AA03F0C6F805006B1E9D41224E94
:10259000EDB2002806D13378002B03D11F49FF305C
:1025A000FFF79EFE2388357001332380092004F055
:1025B00023FC002813D10A3004F03AFA092004F071
:1025C0001BFC092004F018FC002808D114490F3026
:1025D00000F0A2F8134A1449144802F0E1FE03F097
:1025E00009FCFFF763FF78B070BDC0469C03002074
:1025F000C003002076DD00008EDD0000A7DD0000B6
:10260000B5DD000070080020CEDD0000DADD00003E
:10261000F2DD000002DE0000000000200FDE0000FE
:1026200026DE000047DE000057DE000061DE00000D
:1026300010B51400002000F003F8200010BD0000C9
:10264000F0B51400182285B04243029003202A4BB3
:102650000E009A18D36A184002280BD0936A516A68
:102660005B1A013B01D5126A9B189C4202DD0028CF
:1026700040D01C00201E3DD00023029A0193183345
:1026800053430393039B1C49C818826A436AD31AB5
:10269000013B01D5026A9B18039A8A18106A0090C0
:1026A000009D506A281A984201DC536AEB1A2500F3
:1026B0009C4200DD1D001820039B641BCF18029B69
:1026C0007A6A01334343CB185868310080182A00D6
:1026D00008F0B9F9019B76195B1901937B6A009A9E
:1026E0005D197D627B6A9A4201D100237B62002CD6
:1026F000C8D1019805B0F0BD040000200A0010B553
:10270000002905D000228B5C002B01D00132FAE7B2
:10271000FFF796FF10BD00000EB4002170B5040055
:10272000AFB033AD40CDB02202A8019108F094F9CA
:102730002B003200B42101A8009509F0DDF920003A
:102740000A381D4C112835D806F010F9091A1C1E3C
:10275000202224263434282A34342C2E30321749AF
:102760000020FFF7CBFF01A90020FFF7C7FF2100E2
:102770000020FFF7C3FF2FB070BC08BC03B01847A0
:102780000F49EDE70F49EBE70F49E9E70F49E7E7A5
:102790000F49E5E70F49E3E70F49E1E70F49DFE7B5
:1027A0000F49DDE70F49DBE70F49D9E70F49D7E7C5
:1027B0000F49D5E72100D3E711DF0000A1DE0000BB
:1027C000A9DE0000B1DE0000B9DE0000C1DE0000BD
:1027D000C9DE0000D1DE0000D9DE0000E1DE00002D
:1027E000E9DE0000F1DE0000F9DE000001DF00009C
:1027F00009DF0000014B1878C0B270473804004070
:10280000034AD379DB09FCD1A53313727047C04664
:10281000001000400221064B1A788A431A70DA79B8
:10282000D209FCD1997901320A439A717047C046A6
:1028300000100040F0B5A5B005AC16000D000290E8
:102840007C220021200008F007F9002E09D1267013
:1028500066807C222100029808F0F5F8029825B0E5
:10286000F0BDB3B201260393EB180193019B26211F
:1028700028005A1B771E08F0CDF8002800D10198D7
:10288000B3001D5100230370019B451C984203D0E7
:102890000136102EEAD10E27260000250137FFB29F
:1028A000019B72683D2170689A1A08F0B3F80028FD
:1028B00004D1EFB2039B27706380CAE70023013580
:1028C0000370013030640436AF42E9D8F2E784B0D7
:1028D000F7B50B9329AB1B7809AD0700099101935C
:1028E0006A60002A18D01378002B15D02E0000241F
:1028F0002B780093009BA3420ED97068390008F032
:10290000ECFF043600280BD1019A1034A400295999
:102910002898013A09F00BF8F7BC08BC04B0184736
:102920000134E7E7F0B504008DB0080017000D0092
:1029300008F0E5FF00212422019003A8029108F08D
:102940008BF8380008F0DBFF02ABC6B2320039006A
:10295000581C08F078F8222302AA02A91370280054
:102960007218537008F0F7FF002825D0019B8019DA
:10297000ED183A212A1A08F04DF800281CD0013031
:102980000178202915D0092913D06E295DD017D8D8
:102990005B2936D0662953D0222944D00300052272
:1029A000062619782C2955D12060181AA080A2710A
:1029B0001CE001308542E3D800232360A38014E0AB
:1029C00074293AD0030001227B29E8D19D4207D91E
:1029D000597801337B290CD10132D2B2002AF5D1CA
:1029E0002060181A01230130A080A37120000DB0CF
:1029F000F0BD7D29EAD1013AEFE75D2903D1013A23
:102A000008E0030001229D4207D9597801335B2970
:102A1000F3D10132D2B2002AF5D12060181A013068
:102A20000223A080E1E7461C3000AA1B07F0F2FF5A
:102A3000801B03232660A080D7E704232060BDE726
:102A400005232060A380013BCFE704232060A380FF
:102A50000533CAE77D29A7D0AB42A5D25978013307
:102A60002E299ED132009CE7020B030953404340BC
:102A7000000D5840C0B2704710B5034C2060FFF7FE
:102A8000F3FF207110BDC046F0020020DF2310B517
:102A9000074CA0722038184202D1064B238110BD8A
:102AA00084220021044807F0D7FF0123E372F6E7F0
:102AB000F00200206F180000F8020020F0B50E4C64
:102AC0000500206899B016000391002811D02779DD
:102AD000FFF7CAFF87420CD1039B50210093074A9E
:102AE0002B00019604A808F0A9FEF020236804A991
:102AF000984719B0F0BDC046F002002019DF000071
:102B0000034B1B789B0700D5FEE709BE7047C04604
:102B100000100040F0B591B0134C0493134B060025
:102B20002381A065049B20680F001500E1652366E2
:102B30006266002814D023790593FFF795FF059B63
:102B400083420DD1049B28210093094A2B00029750
:102B5000019606A808F072FEFB20236806A9984794
:102B6000FFF7CEFF11B0F0BDF00200206F1800009B
:102B70002CDF0000F0B585B0039008000F00019233
:102B800008F0BDFE019B04000025984217D80600FE
:102B9000C3180293039B1B1A0393029B9E4201D10D
:102BA00000250CE0019BB342FAD3039B22009D1940
:102BB0003900280008F0AAFE01360028EDD12800CF
:102BC00005B0F0BD70B504000D0003F0FBFE00235E
:102BD000A3600133256060602000237370BD10B5D1
:102BE000037B0400002B01D1002010BD03F0EAFE9E
:102BF00063682268C31A9342F6D960600120F4E743
:102C000070B5050000200C00854205D003F0DAFE07
:102C1000401B84428041404270BD0000002801D129
:102C2000C8208000054B1B6C1A00C0321060044A9B
:102C3000002900D00A00D8331A607047841B002096
:102C40001D320000054BC8211B6C89001A00C032E0
:102C50001160034AD8331A607047C046841B0020B5
:102C60001D320000002210B5064C236CC4331A70CC
:102C700001F0F6FF236C1A00C8331B68D032C01A6B
:102C8000106010BD841B0020F8B50E4B06001D6CB3
:102C90000F00C8352B681400002B02D101F0E0FFB3
:102CA000286001223900300000F09AFB2378002BC5
:102CB00007D0200008F023FE012281B2200000F09E
:102CC0008FFBF8BD841B00203C48F8B5046C002243
:102CD0002500C36BD4352A809A68D2681278002AFE
:102CE0000AD127002300C837C0331968386801F0BB
:102CF000D4FF002842D1F8BD9B68DA682300CC33AA
:102D00001A600C331B689847060003061CD4002881
:102D1000E7D0730612D52300C5331B78002B03D0F0
:102D200023000022C4331A7001F09AFF2300C83434
:102D30002268D033801A1860C8232B80B30601D5CF
:102D400000F010FC2888D6E7430710D59623FF3300
:102D50002B8023000022C4331A7001F081FF22006F
:102D60002300C8321268D033801A1860D1E7830775
:102D700002D5CA235B00EBE7FA23FBE72300CC264E
:102D80000022C43376002E801A7001F069FF3B6880
:102D9000D034C01A206001F053FE002805D1084944
:102DA000FA3001F063FE3000A5E701F0B3FB030049
:102DB0003000002B9FD1F9200249F2E7841B00204C
:102DC00049DF000055DF000070B50B4C651CFFF7B4
:102DD0007BFFC0B2002807D1EB7F002B08D0F42284
:102DE000236CFF32D4331A80236CD433188870BD1F
:102DF00001F03AFFEBE7C046841B002010B5084CF9
:102E0000236CCC331B68002B06D178462C237146EB
:102E1000044AFF33FFF77EFE236CCC33186810BDE5
:102E2000841B0020C6EA0000012210B511000248F0
:102E300000F0D6FA10BDC0465EDF000070B5040099
:102E400001F00EFF050001F00BFF401BA04201D373
:102E500000200BE00A4E336CC4331A78002A06D1E6
:102E6000F26B926A002A02D10120187070BD01F045
:102E7000FBFEF36B9B6A002BE5D001F001FEE2E75D
:102E8000841B00200C4B10B51C6C002803D02300C1
:102E90000022C4331A700021C022200007F0DCFD9C
:102EA00022000023D4321380CC340C3A1360236008
:102EB00000F008FB10BDC046841B00200FB4F0B525
:102EC0001F4C85B0236CC4331B78002B06D0002523
:102ED000280005B0F0BC08BC04B01847E36B9B6A3F
:102EE0000193002BF3D101260120FFF7CBFF236CC8
:102EF000C5331E70FFF7A6FE0BABC0210A9A206CEB
:102F0000039308F0F9FD236CC033186880B2FFF713
:102F100095FF051EDBD0276C01F0A2FE246CC8379C
:102F20003860200008F0EBFC019A81B2200000F02C
:102F300057FA32003100034800F052FAC8E7C046A1
:102F4000841B002096E100000FB4F0B51E4C85B044
:102F5000236CC4331B78002B06D00025280005B055
:102F6000F0BC08BC04B01847E36B9B6A0193002BCC
:102F7000F3D101260120FFF785FF236CC021C53363
:102F80000A9A1E70206C0BAB039308F0B5FD236CFE
:102F9000C033186880B2FFF751FF051EDDD0276CE3
:102FA00001F05EFE246CC8373860200008F0A7FCF2
:102FB000019A81B2200000F013FA32003100034878
:102FC00000F00EFACAE7C046841B002096E100001C
:102FD0000FB473B5184C236CC4331B78002B05D188
:102FE0007846164A71468F33FFF794FD002500207E
:102FF000FFF748FF236C069AC533C0211D70206C73
:1030000007AB019308F078FD266C01F029FE246CD3
:10301000C8363060200008F072FC2A0081B220001F
:1030200000F0DEF901220648110000F0D9F973BC66
:1030300008BC04B01847C046841B0020C6EA000044
:1030400096E10000F0B589B007930EAB1B7874468B
:10305000039310AB1B88070002936C4B0F9D1B6CF6
:1030600005910692009300290BD0002802D0037826
:10307000002B06D17846EB232100654A5B00FFF761
:1030800049FD079B039A134304930AD0069B1B78C0
:10309000002B06D17846D82321005D4AFF33FFF785
:1030A00039FD2C1E06D02C78002C03D0280008F007
:1030B00026FCC4B20197002F08D03B780193002B67
:1030C00004D0380008F01BFCC3B20193029B002B14
:1030D00000D195E0009B0026CC33186808F00FFC67
:1030E000019B1C19029B041B9C427641002D00D1C0
:1030F00081E02B78002B00D17DE0009B2900CC33B0
:10310000186808F028FC0023340002909E4223D067
:103110001C00984220D00370280008F0F0FB029BAE
:103120001C5C002C00D02024009D3A49CC352E6830
:10313000300008F010FC002811D03000364908F0AB
:103140000AFC8424002807D000220C30110008F06B
:103150009BFC009BDC331880200009B0F0BD019B74
:10316000002B08D03900300008F0F5FB00283DD0D6
:10317000019BC0182860049B002B31D0286806787A
:10318000002E25D0039B012B06D10022110008F050
:103190007BFC009BE03318600126009BCC331D684C
:1031A000069B681C197808F08AFB03005A1E93419D
:1031B000F618039BF6B20500B34207D10022013096
:1031C000110008F061FC009BE0331860002DE7D18E
:1031D000079B9E4202D3039B9E4201D282231C4343
:1031E00063B2002BB8DB40231C43B5E7059B002BE3
:1031F000C1D08124B0E7341EAED0002302938BE708
:103200000126002D00D074E7029585E7841B00207D
:10321000C6EA000060DF000066DF00001FB5002185
:10322000054B064A019302910B0000910448FFF7F9
:1032300009FF05B000BDC0466ADF0000DCE5000004
:10324000FFDF0000F8B505000F0008F084FB0678EA
:103250000400002E06D0380008F051FB3618C820B4
:103260002670F8BD2800044908F075FBC0B2207034
:103270000028F6D0F420F4E760DF000010B5024922
:10328000FFF7E0FF10BDC04671DF000070B504001D
:1032900046680D00701CE16805F0ECFCA368002096
:1032A0008B4203D0236801309D55616070BD70B5BD
:1032B0000400866863680D000020B34208D0E1680E
:1032C000701C05F0D7FC012023689B5D2B70A1606A
:1032D00070BD0000F7B50500002401910A4F019A66
:1032E000FB6BA6B2A24206D8FA6B300093889B1BF8
:1032F0009BB29380FEBD18682919FFF7D8FF0028FC
:10330000F2D00134EAE7C046841B0020F8B53C2126
:103310000120754607F022FB254CE063002805D10B
:1033200078467B232900234AFFF7F4FB1021012074
:10333000E56B07F013FB041E0CD0E127FF003900FA
:10334000012007F00BFB061E206024D1200007F0AF
:1033500057FB34002C601821012007F0FFFA041EEF
:103360000BD0C021012007F0F9FA20602668002E5A
:1033700013D1200007F044FB34002B00002128006B
:103380003633AC601C2219700C3059709970A962E8
:1033900007F062FBF8BDE760DCE72368E360636188
:1033A0002361C02323812368C0336360E5E7C046FF
:1033B000841B0020CCEA0000042110B5064C6156A5
:1033C000606B01F0D9FB606803220121034BC0B29E
:1033D00001F096FB10BDC046841B00203937000069
:1033E000F0B50600002493B000910192174D009AA9
:1033F000EB6BA7B2944205D21868315DFFF746FF28
:10340000002821D1EA6B9388FB189BB29380019B23
:10341000002B16D000213C2203A8029107F01CFBD0
:10342000082001F067F881B202A8FFF753FF041EDD
:1034300007D0ED6B01F014FCE1B2E86202A801F0E4
:10344000C3F8380013B0F0BD0134CFE7841B00206F
:10345000F0B51A4C8DB0E36B9B6A002B05D1784612
:10346000174A7146E933FFF755FB69460A00E56BD9
:10347000AB6A0433C1CBC1C2C1CBC1C2C1CBC1C2D3
:10348000C1CBC1C2CB7B01331B01CB185E68CB7BA8
:1034900001331B015B58F61AAB8EB6B2B34206D1AC
:1034A00001F0DEFBE36B1B6BC01A0DB0F0BD01F049
:1034B000D7FBE36B286300209E86F6E7841B002081
:1034C000CCEA0000074B10B5DB6B00219C6820683C
:1034D00022692368D21A07F0BFFA2368E3606361A8
:1034E000236110BD841B0020030010B510007F2451
:1034F000A043196018811C89D2090C195C60002452
:1035000092015A815C73DC7319619961D9615961C7
:10351000891819629962D962596210BD0022094B5B
:10352000DB6B9A86C37B59424B41DBB28373012329
:103530004373C17B837B994202D0837BDBB2C3732D
:1035400042737047841B00200022054B0901DB6B8E
:1035500040189A861A6303698361C36143617047A7
:10356000841B0020F0B56B4D0622EE6B2B21B36857
:1035700085B05869774607F04DFA041E00D197E0F0
:103580003300363301931B78002B1DD001000F222E
:10359000614807F04AFA002816D1B3685B690390C6
:1035A0000F3318000A2203A908F06EFA0121C0B2F5
:1035B000EB6B0230800018184268BD3211709A68B7
:1035C0009B6852691A6173E0019B1B78002B0BD03A
:1035D0000D222100514807F028FA002804D1B368D1
:1035E0005B6903900D33DCE73300383301931B78BC
:1035F000002B32D008222100494807F016FA002893
:103600002BD1A37A303BDBB20193B36A002B06D0F7
:1036100078469A233900434A9B00FFF77BFA019BC7
:10362000EA6B02339B00D3185B6821009362966AB1
:10363000F37C01331B01F318586893681A69121B55
:1036400007F001FAEB6B9A681269F17C141B09010F
:103650007618B0690419B461B1E7019B1B78002B9F
:1036600046D008222100304807F0DFF9002806D0B4
:10367000082221002D4807F0D8F9002838D100246D
:10368000B3680A22586903A90A30039408F0FCF9C8
:103690000121EB6BC0B21E0081400230800018187F
:1036A0006A2338363278FF338A4332704268D45402
:1036B000AE1CF37F012B19D1EC6BA3681A69A368C8
:1036C0005B69A168D21A4869D2B2412107F0A2F918
:1036D00000280BD00922164907F0A7F9002805D1C8
:1036E0000223F377A268A36852691A6105B0F0BD9E
:1036F000112221000F4807F098F90028D8D1B368AB
:103700000A225B6903A911330390180008F0BCF981
:10371000EB6B54E7841B002074DF000084DF0000A3
:1037200092DF0000CCEA00009CDF0000A6DF000072
:10373000C1DF0000AFDF0000F0B5022091B000F063
:10374000D9FE0400792501231C4203D0013DEDB2CE
:10375000002D1ED13E272740062F1FD100F040FF2D
:10376000022000F0C7FE012304001842EAD03E4BBD
:103770005868C0B201F0BAF9002873D1023000F0E5
:10378000B9FE0400082000F0B5FE092000F0B2FEEA
:10379000D8E7022000F0AEFE0400D4E73620204037
:1037A000042838D1053000F0A5FE061E33D02E4C7B
:1037B000E36B9A6A002A44D09C6A637C002B06D093
:1037C000E27CA37C9A4202D0A37CDBB2E374E57C6A
:1037D00031002D016519A86900F0EAFEA869861973
:1037E000AE61AB696969E2895B1A3F3A9BB29A4262
:1037F00011DC201DFFF792FEA37C01331B01E318AF
:103800009B68A27C01321201A21852689B1A5A1EB0
:103810009341DBB22374022FA2D100213C2201A8E4
:10382000009107F019F9082000F064FE81B26846A3
:10383000FFF750FDC1B2002992D0684600F0C4FEE7
:103840008EE79B683100186900F0B2FEE36B99685F
:103850009A68096951619B68186986191E61FFF7AA
:1038600081FED8E711B0F0BD841B002070B501F0D7
:10387000E7F8002802D1192528B270BD1048FFF7DB
:103880001DFB0028F7D0FFF79FFA0024C82810D1AD
:10389000FFF7B4FAFFF7B2FA0A49023008F05BF812
:1038A00021000A22053008F0EFF8C4B21925632C74
:1038B00002D06400713C65B2FFF7D4F9DCE7C04682
:1038C000CBDF0000CDDF00001FB5002201210292F6
:1038D0000B00019200910248FFF7B4FB05B000BD58
:1038E000D2DF00001FB500230293019302330121B0
:1038F000034A00930348FFF7A5FB05B000BDC0468F
:10390000DCE50000DDDF00001FB50023029301931A
:1039100002330121034A00930348FFF793FB05B0EC
:1039200000BDC046DCE50000E8DF00001FB5002355
:103930000293019302330121034A00930348FFF7E6
:1039400081FB05B000BDC046DCE50000F2DF0000F1
:103950001FB50022012102920B0001920091024842
:10396000FFF770FB05B000BDDDDF00006C4BF0B56C
:10397000DE6B7746B36A8BB0002B28D0B36A9B7896
:10398000102B24D1B36A67490393039A803315003F
:103990000493DB7B083501331B01EB18D86F141D32
:1039A00008380822FFF7E6F80690002811D1FFF743
:1039B0004FFD0C280BD9DA205B4901F057F8049B26
:1039C000D97B1800C9B2FFF7BFFD069BB3620BB0ED
:1039D000F0BD049B0399DB7B04985A1C1B01120168
:1039E000E418AD189434EA6F2368D31A8A2292003F
:1039F0008B52FFF793FD049B0C22DD7B4B496B42FE
:103A00005D41EBB20793039B2D015D192B009033B1
:103A10001868FFF7AFF8041E05D17846444B39000B
:103A2000444AFFF777F820000C3006F091FF079B1F
:103A300009901C01039B18221C199834222120682C
:103A400006F0E8FF071E05D107990498FFF77CFDF3
:103A5000B762BCE701372760943520682A6823687D
:103A60002221D21A92B206F0D5FF20602568002DDF
:103A700005D107990498FFF767FDB562A7E72368AA
:103A8000039D08930333236005930023069A6F3543
:103A9000FF351370280007F032FF83B2002B07D0E8
:103AA0001A00390028001C0007F030FF002812D04F
:103AB000039DCA35FF35280007F021FF83B2002B94
:103AC00000D184E71A00390028001C0007F01EFF0F
:103AD000002800D07BE70023E21C0598BA181900E3
:103AE000904202D93B195A1E11700024089A059978
:103AF00014706A46928C9446039A15005078069A80
:103B00000091521A92B20192B03561463A002D6886
:103B1000A84707990498FFF717FDB46257E7C04616
:103B2000841B0020FCDF000000E000001AE0000021
:103B300065020000CEEA0000F0B504009DB0100060
:103B400016007746029107F0DAFE0021C5B26B1E1F
:103B50000393F35C562206A80193059106F07CFFBF
:103B6000019B232B00D1039D31002A0005A806F0FC
:103B70006AFF20006F3005A9FF3007F0AEFE002875
:103B800011D02000CA3005A9FF3007F0A6FE00289A
:103B900016D0029B002B15D17846174B3900174AD7
:103BA000FEF7B8FF0AE00300029A002A06D15B2064
:103BB0005843130024186F34FF3423701DB0F0BD38
:103BC0000123F1E7B7235B00E65C05A8751EAE4153
:103BD0005B2507F094FE7543421C28006F30FF30D0
:103BE000201805A907F0A3FE019B232BE6D1641939
:103BF000C934FF34E1E7C04632020000CEEA0000DB
:103C0000F7B57746040016001D000191002801D089
:103C1000002A05D17846552339001B4AFEF77AFF62
:103C2000019B052B05D9784656233900164AFEF725
:103C300071FF8B2200219200200006F00DFF5C2313
:103C40002370019B20006370102331002A00A370B1
:103C50008030FFF749FC0600854204D060210B4A02
:103C60000948FEF72BFF402E05D87846612339001E
:103C7000054AFEF74FFF2300089AB0331A60B523B8
:103C800001225B00E252F7BDCEEA000025E0000011
:103C90006A220023FF3283540D4A70B5D16B01258F
:103CA0000E004278383634781540023292008A1875
:103CB000AC4334705360020006496F32FF32411842
:103CC00013705B328A42FBD16E22FF32835470BD87
:103CD000841B002020420000F7B50400080077464E
:103CE0000E00150007F00BFE592806D978469A23D6
:103CF00039001B4A5B00FEF70DFF1A491A48FEF710
:103D00008DFFB5235B00E25A6178013292B2E25234
:103D1000164833000095FFF717F900281DD0FFF76C
:103D200053F80500C82816D1320001212000FFF702
:103D300003FF0F4B6278D96B0123080093403830A2
:103D40000678023233439200DBB28A1803700948C6
:103D5000546000F0ADFE2800FEBDC8256D00FAE7F6
:103D6000CEEA0000093900003075000041E0000093
:103D7000841B00206D390000F0B50400FA2085B0E6
:103D80001D000AAB1B788000584316000700039102
:103D9000002B00D1214F2249FEF740FFB8B2FFF7B8
:103DA0004DF800282BD00022964204D0B5235B00AA
:103DB000E25A511CE152039B61781A480093330088
:103DC000FFF706F9FFF700F801260400C82819D10B
:103DD00015493800FEF722FF280007F090FD134A2E
:103DE00081B22800FEF750FFFEF7EEFFB61904007F
:103DF000C82807D1FEF736FF200005B0F0BD9A2491
:103E00000600FF34FFF710F8FEF72CFF2300320006
:103E10001B200749FEF780FCEEE7C046983A0000F9
:103E20007D32000059E000002D39000073E00000F1
:103E300075E0000010B5040000F002FE002801D17A
:103E4000002010BD052CFBD809480A49FEF7E6FE04
:103E50000948FFF779F80028F2D0FEF7B5FF030014
:103E60000220CB2BEDD0CA3B58425841C0B2E8E704
:103E7000881300005139000098E00000037870B505
:103E8000754604005C2B06D07846D52371461B4A44
:103E90005B00FEF73FFE6378052B06D97846AC231E
:103EA0002900164AFF33FEF735FE6078FFF7C2FFA0
:103EB000134B6678DA6B6A2538321178FF354B423E
:103EC000594101233141194209D0022807D1B34099
:103ED00011780B43DBB213706055605D70BD431EFB
:103EE000DBB2012BF8D93730C0B2012803D820004B
:103EF000FFF7CEFEF1E700236355EEE7CEEA0000C0
:103F0000841B002070B56A250400FFF7B7FFFF355A
:103F1000605500280AD0B6235B00E35C002B4ED02E
:103F20006E230122FF33E254C82070BDE378002BDA
:103F30002ED1B4235B00E35C042B09D161782148C6
:103F4000FEF7BCFF002803D0FEF73EFFC8282AD1A9
:103F50001D491E48FEF762FE23007C331B886178F2
:103F60001B48221DFEF7F0FF0028DED0FEF72CFFD5
:103F70000300C83B9BB2632B18D8164BDA6B6378EF
:103F8000383211780B4001210B4013706155CBE79B
:103F9000617811480A00FEF791FF0028C9D0FEF7AA
:103FA00013FFC828C5D0FA204000BEE70B4BC0184D
:103FB00080B20628F7D80A4B4000C05AB5E7CE2099
:103FC000F2E7C046D2E00000C9380000C8AF0000E8
:103FD000BCE00000841B0020A4E000007DFCFFFF8B
:103FE0002EE1000070B56A25E4B004000E00FFF772
:103FF00045FFFF35605502280BD1B6235B00E35C1B
:10400000002B5AD06E230122FF33E254C63064B035
:1040100070BD320061782A48FEF750FF00282DD18C
:1040200028492948FEF7FAFDBE220021520005A8C2
:10403000049106F011FD2200C021F0320292283ACC
:104040000192143A00926378204A490004A807F0CC
:10405000F5FBC8208000FEF7F1FE002823D004A85D
:1040600007F04DFC1A4A81B204A8FEF70DFEFEF7D8
:10407000ABFEC82809D102236355C8E7FEF7A4FEAA
:10408000C828CDD0FA204000C1E7CC235B0098427D
:104090000BD1FEF7B3FE0F4907F05DFC002802D0FC
:1040A0000C3006F055FCC820EDE7C93880B2042872
:1040B000E8D8094B4000C05AA9E7CE20E3E7C04644
:1040C000EBE00000E538000060EA000005E10000D8
:1040D00096E1000022E100003CE10000B5235B0016
:1040E000C05A70471FB5002102230A0002910191B6
:1040F00000930248FEF7A6FF05B000BD46E10000B0
:10410000F7B50F0022210500140007F0D8FB461B6D
:10411000F3B20190181E0FD022000021380006F0E3
:104120009BFCF6B2621EB24200DD3200290038006C
:1041300006F089FC01980130FEBD000070B57F21BA
:104140000120754606F00AFC041E05D17846472377
:104150002900034AFEF7DEFC024B9C6470BDC0469A
:10416000CFEA0000841B0020F0B587B0774604003A
:1041700000F076FD962302905B009C4261D8FA2005
:10418000800060430190354CA36C002B06D178462B
:10419000BF333900324AFF33FEF7BCFCA56C2E78E2
:1041A000002E35D1C8208000FEF748FE039D002870
:1041B0002ED07F223100A06C06F04EFCC8203100CA
:1041C0008000FEF72BFD2748FEF702FFFEF7FCFDFF
:1041D000C8283FD1FEF712FE222107F070FB0590A0
:1041E000002812D01422A16C0130FFF789FF0A22A7
:1041F000059005A9013007F047FCC0B2082825D179
:10420000A06C19491D3007F072FBFEF72BFDA56C61
:104210002B00012228331A702B78002B0ED1FA20A4
:10422000800000F02DFD00F01BFD029BC01A019BD9
:10423000984209D30134E37F002B05D1280007B051
:10424000F0BD0A4B01939EE703959CE7A06C0849DB
:104250001D30D8E7A36C1E705E77D6E7841B002064
:10426000CFEA00004FE1000058E10000E0930400B5
:104270005BE10000C820F0B5800089B0FEF7DEFDEC
:10428000002805D10026FEF7EDFC300009B0F0BD96
:10429000C82030498000FEF7C1FC2F48FEF798FE89
:1042A000FEF792FD2D4B0400986C56220021293018
:1042B00006F0D2FBFF26C82CE5D1FEF79FFD07F0E4
:1042C0001EFB0828DED9FEF799FD254907F043FBC0
:1042D0000025EEB20028D6D0022D01D12E00D2E763
:1042E0002B271E4B6F439B6C0A22083003A90193B6
:1042F000040007F0C9FB019B2C21DE1933002A338F
:104300001870039B581C039007F0D9FA0A220390F7
:1043100003A9013007F0B8FB33002B331870039B5F
:104320001022981C04A9FFF7EBFE039000280AD086
:104330003800019B2C301818102204A907F0F7FA56
:104340000123293633702000054907F004FB0135AD
:10435000BFE7C046E54000005FE10000841B00208D
:1043600046E1000010B5040000F06AFB00281DD0F3
:10437000114B9B6C1A002A321278A24204D11A0007
:1043800029321278002A0FD11A0055321278A2422F
:104390000CD11A0054321278002A07D001222B20A7
:1043A00050432930181810BD0022F8E7FFF762FFCC
:1043B0000028D9D1F7E7C046841B0020F0B58BB0A8
:1043C000059310AB089204CB77461B780400079145
:1043D00006920993FFF7C6FF061E65D100F030FB79
:1043E000022805D07846B2233900374AFEF792FBFF
:1043F000FA20C000FFF7B8FE03780500002B05D1B6
:104400007846314A3900B433FEF784FB2B000C2088
:104410002A002E491D33FEF77FF9C8208000FEF7E1
:104420000DFD002808D1FEF71DFC294B7F2200213D
:10443000986C06F011FB37E0C82000218000FEF7E1
:10444000EDFB059B2348002B08D01B78002B05D0E3
:10445000069B002B02D01B78002B28D12100089B43
:10446000079AFEF7B5FDFEF7AFFCC828DBD1C820E0
:1044700019498000FEF7D2FB21001848FEF7A8FD7D
:10448000FEF7A2FCC828CED1FEF7ECFB2000FFF718
:1044900069FF03780500002BC7D0C31C22000C2045
:1044A0000F49FEF739F92E0030000BB0F0BD099B23
:1044B00021000293069B079A0193059B0093089B9A
:1044C000FEF786FDCFE7C046CFEA000069E10000B5
:1044D000841B002082E10000E540000098E100001C
:1044E000A5E10000002307B501930093FFF766FFE5
:1044F0000EBD0000C1007820054B0140083010B50A
:104500000143586B00F040FB0004000E10BDC04694
:10451000841B002010B50120FFF7ECFF0738434251
:104520005841C0B210BD0000782310B5C00018403B
:10453000034B09020143586B00F026FB10BDC04637
:10454000841B002010B508210E20FFF7EDFFBF21CE
:104550000320FFF7E9FF0220FFF7CCFF1021002422
:104560000143C9B20220FFF7DFFF00210320FFF75C
:10457000DBFFB1210220FFF7D7FF80210320FFF7E7
:10458000D3FF20000421FFF7CFFF21000120FFF718
:10459000CBFF21000320FFF7C7FF03210800FFF72F
:1045A000C3FF10BD10B507210120FFF7BDFF10BDEF
:1045B00010B5020003480B00406B802100F022FB85
:1045C00010BDC046841B002010B5020003480B003C
:1045D000406B002100F016FB10BDC046841B00207C
:1045E00010B50920FFF786FF0520FFF783FF402461
:1045F0000020013CFFF77EFF002CF9D10920FFF7D6
:1046000079FF0520FFF776FF10BD0000044B10B5C1
:104610009868C0B200F06AFA431E9841C0B210BD5B
:10462000841B0020F8B5FFF7F1FF1B4C051E08D0D6
:104630000D201A49FEF770F802230234E3772800B0
:10464000F8BDA31CD87716490D20FEF765F8E3687E
:104650000121D8B200F04FFAFA20800000F010FBE0
:10466000E3682900D8B200F046FA4926013EF6B2C6
:10467000002EE4D0FFF7CAFF071E08D001230D204B
:1046800008490234E3773D00FEF746F8D7E7642097
:1046900000F0F6FAEAE7C046841B0020C9E10000FA
:1046A000E1E10000F5E1000010B50D200D49FEF735
:1046B00033F80D4C0121E368D8B200F01CFA0B4826
:1046C00000F0DEFAE3680021D8B200F014FAA36823
:1046D000D8B200F00BFA002800D110BD642000F021
:1046E000CFFAF4E7FBE10000841B0020DC050000AA
:1046F00070B5002816D0FFF7D7FFFA20400000F071
:10470000BFFAFFF78FFF00F0ABFAFA2504006D0146
:104710000F4B9868C0B200F0E9F900280CD00C20CB
:104720000C4912E00C210C4A0C48FEF7ADFAFA20B5
:10473000800000F0A5FAE6E702F09AF900F090FA9E
:10474000001BA842E4D911200549FDF7E5FF70BD23
:10475000841B00203AE20000FFDF00000EE20000B0
:104760001BE20000012210B511000748FEF738FED9
:10477000FEF778FA0548FEF7A1FBFEF725FBC838DF
:1047800043425841C0B210BD5EDF000045E2000068
:1047900010B504000120FEF775FB2000FEF78EFB2C
:1047A000002805D0FEF710FBC83843425841C0B27C
:1047B00010BD000010B50D48FEF780FBFEF704FBAE
:1047C000C82807D0FFF7CEFF002803D10849FF30E3
:1047D00000F04CF90748FFF7DBFF002800D010BDC0
:1047E000FF20054900F042F9FEE7C04645E200001F
:1047F00048E200006EE200005BE20000F8B5040051
:1048000016001D000A0006AB01001A481F78FEF7CB
:1048100055FB002816D1320021001748FEF74EFB49
:10482000002815D12A0021001448FEF747FB002874
:1048300013D13A0021001248FEF740FB002811D1A5
:10484000013004E0FEF7C0FAC828E4D00020F8BD2B
:10485000FEF7BAFAC828F9D1E4E7FEF7B5FAC82896
:10486000F4D1E6E7FEF7B0FAC83843425841C0B287
:10487000EDE7C04673E2000091E20000B2E2000002
:10488000D5E2000084B070B5264C0793236C7546C2
:10489000049005910692002B05D078464723714677
:1048A000214AFEF737F9230004AA43CA43C343CA87
:1048B00043C303CA03C32368D8B200F035F970219B
:1048C0006063012006F04AF86064002805D178464C
:1048D0004D232900144AFEF71DF9FEF717FDE421C8
:1048E000012006F03BF82064002805D178465223C9
:1048F00029000D4AFEF70EF9C8200C498000FEF78A
:104900008DF90120FEF7BEFAFFF718FC0022631CA8
:10491000DA770123A3630D9B636270BC08BC04B00B
:104920001847C046841B0020C5EA00001D32000065
:10493000F8B574460500FFF769FE002805D17846F2
:104940009D232100134AFEF7E5F8FFF7FBFDFEF774
:1049500033FDFFF727FE104C002D05D00223023453
:10496000E377FFF727FFF8BD00F07AF9022706008A
:10497000A51CEB7F022BF4D0012000F081F900F0A0
:104980006FF9064B801B9842F2D9EB7F012BEFD1D8
:10499000EF77EDE7C5EA0000841B0020983A00009D
:1049A00070B5214C0021E3680500D8B200F0A3F8EF
:1049B00023690021D8B200F09EF823680121D8B203
:1049C00000F099F863680121D8B200F094F8E36828
:1049D0000121D8B200F086F823690121D8B200F095
:1049E00081F823680121D8B200F07CF8A368002187
:1049F000D8B200F077F863680221D8B200F072F8FC
:104A0000606B00F0A9F8FFF701FE041E09D0002D2D
:104A100003D00120FFF76CFE00242000FFF788FF81
:104A200070BDFFF7FFFDF8E7841B002010B5040000
:104A3000FFF75EFE01206040FFF77AFF10BD000027
:104A400010B5094CA368D8B200F050F8A31C002898
:104A500007D0DA7F002A01D10132DA770234E07F11
:104A600010BDD877FAE7C046841B0020034B10B571
:104A70005B6A002B00D0984710BDC046841B002005
:104A800070B5FFF7DDFF002803D10749FF30FFF7BE
:104A9000EDFF0024054DEB6C002B00D0984701344E
:104AA0000435062CF7D170BDF1E20000841B002014
:104AB0000B4A30B5002314001100E56C85420CD080
:104AC00001330434062BF8D10023D46C0432002CBB
:104AD00004D112339B00CB18586030BD0133F4E78A
:104AE000841B002010B502F02BF910BD10B502F0A8
:104AF00083F9C0B210BD10B502F052F910BD00002C
:104B000010B5182444431900054B1B1916241C57D3
:104B10000123A340034C236101F020FE10BDC046D9
:104B200020EB00000018004010B50400082005F03C
:104B30005DFF00280BD081235B00054A8380054B75
:104B400002601A6000229A80FF3284711A7210BDCE
:104B500080841E00900C002010B504000121807993
:104B600002F01EF90121A07902F0EAF8014801F0F3
:104B7000F9FA10BDA00C002010B5024801F0DAF9D6
:104B800010BDC046A00C0020F7B50C00019000211C
:104B9000807902F005F9194B194D06CB280001F078
:104BA000EBF9019B270A5B79E6B2012B17D13100A3
:104BB0002800FF2601F010FAB4430443390028000E
:104BC00001F00AFA34400002019B01210443987964
:104BD00002F0E6F8280001F0EBF9A0B2FEBD3900C2
:104BE000280001F0F9F9FF2700023C40044331009E
:104BF000280001F0F1F9BC43E6E7C046900C002024
:104C0000A00C0020F7B50F001E0005000192002146
:104C1000807902F0C5F80B4C0B4B200006CB01F05D
:104C2000ABF93900200001F0D7F9320020000199DA
:104C300001F0D7F9A879012102F0B2F8200001F0C3
:104C4000B7F9F7BDA00C0020900C0020024B034ADE
:104C50001A6000229A807047900C002000093D00E5
:104C600010B501F0AFFE10BD10B501F001FF034B10
:104C70001B68002B00D0984710BDC0469C0C00203C
:104C800070B505000024AC4206D0FFF7EDFF01200F
:104C900001F0CEFE0134F6E770BD70B505000020CE
:104CA0000C00854205D001F08DFE401B84428041FE
:104CB000404270BDF0B50600F9B0180014001D00A8
:104CC000079106F01CFE174902000020FDF724FDA5
:104CD0001549012E00D0154908AF0522380006F00D
:104CE00026FE134E3068FFF7F9F9B621079B0090B6
:104CF0000393104B104A01930494104B0297FF3119
:104D00000AA806F09BFD002329001A000AA800F05B
:104D1000B3FF9C2300225B01F254094BF45279B09B
:104D2000F0BDC04609E3000000E3000005E3000019
:104D3000E81B0020682F00201CE30000F01B00206F
:104D4000B6130000F7B5744605001600019106F091
:104D5000D6FD102805D9784656232100164AFDF7BE
:104D6000D9FE300006F0CBFD272805D97846572319
:104D70002100114AFDF7CEFE0027104BBC011A5D41
:104D8000002A14D14237BB010D4F2900D8190093D6
:104D900006F0ADFD0B4B00983C19E418019B183050
:104DA00031002360C01906F0A2FD0120FEBD0137CD
:104DB0000C2FE3D10020F9E72AEB0000682C00203B
:104DC000E81B00209410000070B5050010000C00D6
:104DD000160006F094FD80B20449054B002800D06F
:104DE00033002A002000FFF765FF70BD8D2F0020E3
:104DF00011DC000010B50A000121FFF7E5FF10BD2E
:104E000084B0F0B50027CF4C0500A544CE4C25A8B2
:104E10006C442160626039000B22A360249705F086
:104E20001BFE7C226B4639009B1829A85B3A1F7039
:104E30001E97289705F010FE0F231D93C34B702279
:104E40006B441900684624AE1C9605F0FCFDBE4B71
:104E500062686B441968BE48A368FDF738FD0523F6
:104E60001D931EAB1C93B94B70226B44190068460E
:104E700005F0E9FDB44B62686B441968B548A36856
:104E8000FDF725FD28AB1C93B04B25376B4419006B
:104E9000702268461D9705F0D6FDAB4B62686B44E7
:104EA0001968AD48A368FDF712FDAC4903221EA89E
:104EB00006F02CFD3A0028A90400A94806F037FDA9
:104EC000A84F3900EE310B78002B05D0300006F0EA
:104ED00004FD002800D0E0E1002C4CD02A0019206D
:104EE000A149FDF719FCA14B51AC6B442000196896
:104EF0009F4AFDF717FDA28800249E4B51996B44F1
:104F00001800FDF797FC9C4E2900300006F0E5FCE8
:104F1000002826D199499A4BA4016C22694468461D
:104F20003C19E41805F08FFD924B24686B44186817
:104F3000A123DB006B441968924B6B441A68A223CF
:104F4000DB006B441B68A0479C235B01FB5C002BD0
:104F50000BD0FA2201208C4B8C495200FFF7AAFE9D
:104F600003E0013440360C2CCED1894B9D44F0BC7B
:104F700008BC04B01847874F2800390006F0ADFC84
:104F800000284ED1EF222100920052A8519405F042
:104F900063FDA120C1222600764BC0006B44210096
:104FA000D20068441C6005F057FD734D00214C226F
:104FB00033A8329105F050FD2B78002B15D02B0033
:104FC00018335021744A009332A82B0006F036FCA7
:104FD000F0239B001A1B51AB181932A906F0A7FC4D
:104FE00032A806F08CFC2418A4B2013640350C2EF1
:104FF000DCD151A806F083FCB12300241B016B44D3
:105000001818664B664AC0186649047051AB594877
:10501000684406F013FCC8223900564B6B4420004C
:105020009CE7614F2800390006F057FC00280ED19C
:10503000A120C1224F4BC0006B442100D200684424
:105040001C6005F009FD594B594A5A49DFE75A4F90
:105050002800390006F041FC002817D1A120C12208
:10506000444BC0006B442100D20068441C6005F032
:10507000F3FC00F02FFC514B01903E480093504A46
:10508000504B4C49684406F0D9FBC4E728004E4910
:1050900006F023FC002800D0A4E0344B22AD6B4482
:1050A00028001968324AFDF73DFCAA88229951A8C8
:1050B000FDF7C0FB2F4B7C226B44180051A905F073
:1050C000C2FCA2210823C90032AD7022694468469F
:1050D0006C6032941D931C9505F0B5FC254B3B4844
:1050E0006B441968A123DB006B441A68254B6B44A1
:1050F0001B68FDF7ECFB2A000A203549FDF70CFB85
:10510000280006F0FCFB334E00280DD00338C0B257
:10511000082804D9C82231002F4B52007FE70C2207
:1051200029002E4806F003FC2C4C31002300C82235
:105130000020FFF7BFFD22000F202949FDF7ECFA00
:1051400013E7C046ECF4FFFF2C0B0000380B000007
:105150006EE3000073E3000077E3000005E3000066
:10516000682F0020E81B00207BE30000A80B000054
:105170008BE3000004050000682C002014050000EB
:10518000941000000C05000092E300008D2F002019
:10519000140B0000B9E30000C1E3000033F6FFFF89
:1051A000D6E30000740400007DE40000F01B002042
:1051B00084E400000C060000D1E400003C1C002048
:1051C000D9E40000261C002015E5000062E500007F
:1051D0001EE500005EE500002CE50000191C002023
:1051E00067E500002800304906F077FB00284DD124
:1051F0002E4B20AD6B44196828002D4AFDF792FB19
:10520000AA88209932A8FDF715FB7C2232A951A863
:1052100005F019FCA120C122264BC0006B442100DF
:10522000D20068441C602294239405F015FC0823E6
:1052300022AD702254A968461D931C9505F003FC0D
:10524000539B5199529A1C48FDF741FB2A001B4978
:105250000A20FDF761FA280005F074FB154B0500E4
:105260006B4418000C2100F0DFF9124BC82220001B
:1052700013496B44FFF71EFD002D00D175E6200099
:1052800000F030FA012000F02DFA6EE6CA2021006D
:105290000C4A4000FFF798FD67E6601E84419420A9
:1052A000094AE1B2FF30F5E779E50000A80B0000FC
:1052B0008BE300000405000081E5000087E50000A5
:1052C00097E50000A3E50000BBE50000F0B500266F
:1052D000294C0700A54415000C00252231000AA81E
:1052E0000593099605F0B8FB31004D2215A81496D8
:1052F00005F0B2FB2149012F00D0214907AF05225B
:10530000380006F014FB237809AE002B2AD10922BD
:105310001C49300006F00BFB2B78002B05D02B002E
:105320005121194A14A806F089FA00F09DFCB62113
:105330000090164B164A02960197FF3129A806F0F5
:105340007DFA059B134A0093134914AB97A806F006
:1053500075FA002397A91A0029A800F08DFC0F4BBD
:105360009D44F0BD200006F0CAFA0200272800D9AB
:1053700028222100CDE7C04694F7FFFF00E300009C
:1053800005E30000C8DD0000CFE50000F01B0020B1
:10539000DEE500001FE600000C0600006C080000BF
:1053A00010B513000A0001000120FFF78FFF10BDA8
:1053B00030B5144C4D22A544002404A821000394C8
:1053C00005F04AFB2100104A19A8189405F044FB87
:1053D0000E4D51212B000E4A03A806F02FFA0D4B5B
:1053E0000D4A01930D4B0E49009318A82B0006F0AF
:1053F00025FA20000B4918AB03AAFFF767FF0A4BF9
:105400009D4430BDECF9FFFFAB050000F01B002010
:105410002FE600003C1C00203EE60000261C002079
:10542000AF050000B5E600001406000070B52A4C78
:105430000025A544040029004D2212A8119505F06D
:105440000BFB2900254A27A8269505F005FBA37824
:10545000234E0193234B244A00935121330011A87A
:1054600006F0ECF9231DDB6F20490E93E36F26A8AD
:105470000D93A36F0C93636F0B93236F0A93E36EEB
:105480000993A36E0893230066331B8807932300B8
:10549000643300229B5E06932300623300229B5EEE
:1054A00005932300603300229B5E114A0493E36D51
:1054B0000393A36D0293636D0193236D00933300F7
:1054C00006F0BCF928000B4926AB11AAFFF7FEFE37
:1054D000C923DB009D4470BDB8F9FFFFAB05000098
:1054E000F01B0020191C0020BCE60000AF050000E6
:1054F000D2E6000086E70000F0B5040085B0100099
:10550000019377461500029106F0F9F9039001988E
:1055100006F0F5F906000A9806F0F1F9039B9E19CA
:105520002836029B36189E4205D378460823390058
:105530000E4AFDF7EFFA20000D4906F0D8F92900D0
:10554000200006F0AFF920000A4906F0ABF90199F6
:10555000200006F0A7F92000074906F0A3F9200073
:105560000A9906F09FF905B0F0BDC0462CEB00008B
:105570008CE70000A6E70000B4E7000070B5162233
:105580000D0024497646040006F0C0F9002805D035
:1055900078461B233100204AFDF7BCFAA37D732B0C
:1055A00007D1237E3D2B04D1200006F0A8F9B328B3
:1055B00005D978461C233100174AFDF7ABFA193498
:1055C0002000164906F0C7F9061E21D0021B210053
:1055D000280034003A300D3405F035FA2000104927
:1055E00006F0B9F9061E13D02800321B210001363F
:1055F000113005F028FA300006F081F90200280089
:1056000031006D3005F01FFA064B2B80C9236B80EB
:1056100070BDC046B6E700002CEB0000CDE70000EF
:10562000D8E700002B4500001FB5094A094C0A4B7A
:10563000145DD35C0394094C145B0294084C145B16
:105640000194084C125B0092074A06F0F7F81FBD60
:10565000E81B0020D0130000C8130000CE13000088
:10566000CA130000CC130000DEE7000010B50024D0
:10567000A8B0210074220BA80A9405F0EDF90F4B95
:105680000F4A2821684606F0D9F80AA87821FFF7C2
:10569000CBFF6A460AAB20000A49FFF717FE0A4B08
:1056A0000A4A0B4999500B4A9C540B4A9C520B4A8C
:1056B0009C500B4A9C5428B010BDC046191C0020B9
:1056C00029E8000038E80000E81B0020C4130000AF
:1056D000614C0000C8130000CA130000CC13000086
:1056E000D013000010B5041E01D0032806D11022EB
:1056F0000021064805F0B0F902239C43012C04D197
:105700008C220021024805F0A7F910BDAC2F002023
:10571000F8020020F0B50026554C0D00A544040009
:105720003100059207A82522069605F095F931006B
:105730004D2232A8319605F08FF93100392212A896
:10574000119605F089F93100392222A8219605F039
:1057500083F9237806AE002B00D07CE009223000CC
:10576000444905F070F92B78002B05D02B0051210E
:10577000414A31A806F062F8404FD220390000F0CB
:105780005FFA3F4D3F4B404C5B59404A23409342A8
:1057900009D114213E4B3F4AB4A806F04FF8B4A9F2
:1057A00021A806F07FF83900D32000F049FA354BE4
:1057B000394A5B592340934209D11421344B374A6B
:1057C000B4A806F03BF8B4A921A806F06BF839009C
:1057D000D42000F035FA2B4B5B591C40304B9C42D7
:1057E00009D114212A4B2F4AB4A806F027F8B4A9EE
:1057F00021A806F057F821A806F081F800280AD061
:1058000021AB18180023013803703D21264A21AB33
:1058100011A806F013F800F027FAB621234B0090E8
:105820000193234A234B0296FF3146A806F006F85F
:1058300011AB0193059B204A0093204931ABB4A8DA
:1058400005F0FCFF0023B4A91A0046A800F014FAE2
:105850001B4B9D44F0BD200006F051F802002728A4
:1058600000D928222100300006F061F87BE7C0460D
:105870007CF7FFFF4AE80000CFE50000FFDF0000F3
:10588000D4130000E81B0020FF00FFFFD200C80077
:10589000C02F002054E80000D300C80061E80000D9
:1058A000D400C8006DE8000078E8000000E30000C4
:1058B0008DE80000F01B0020CEE800000C06000080
:1058C0008408000010B5FFF7B1F810BD10B5FEF761
:1058D0004BFC10BD10B5FDF7C9FF10BD10B5FEF7AC
:1058E00001FE10BDF0B51800BFB01D00170006F096
:1058F00006F81FAC020029002000FCF79BFF267869
:10590000FFF7AEF9334902000F20FCF705FF38001E
:1059100005F0F5FF3B0002002F490A20FCF7FCFED2
:10592000280005F0ECFF2B0002002C490A20FCF7B0
:10593000F3FE449805F0E3FF449B020028490A2047
:10594000FCF7EAFE32000F202649FCF7E5FE2500B1
:1059500000270435BE4235D800202349FCF7DCFE81
:1059600024231D93214B22A9702268461C9305F025
:105970006AF81F996268A3681D48FCF7A8FF112305
:105980001C4D22A9702268461D931C9505F05BF8FA
:105990001F996268A3681848FCF799FFCA21174A43
:1059A000174B4900D152449B22A9702268461C9390
:1059B00005F049F828001F996268A368FFF720FAEC
:1059C0003FB0F0BD0A20EB6B2A680E49FCF7A4FE3D
:1059D0000137BEE7E4E80000FCE8000007E900004A
:1059E00012E900001DE9000096E10000682F002088
:1059F00030E900008D2F002036E90000E81B002070
:105A0000B613000029E90000F0B54C4CCDB02300DE
:105A1000FF33DB78012B05D87846494B7146494A5C
:105A2000FDF778F82600FC364749B0682500FDF7F9
:105A3000E7F8FF3500282ED00120FFF743FFFFF7DE
:105A40000FF90023B060EB702500FF35EB780A2BCF
:105A500051D13E4E3E4F33006E213E4A009703A87F
:105A600005F0ECFE3C4B3200B42100931FA83B0034
:105A7000FFF742FD01212068FEF7B4FA9423FF33BB
:105A8000984256D00133984231D2043BC82830D1D5
:105A90000B23EB702FE0EB78022BD5D12068FEF7BB
:105AA00031FAC8280ED09138FF3883B20A2BCBD8F0
:105AB0000A28C9D802F050FF0BC8C8C80BC8C8C80C
:105AC00016161100FFF7CCF80A23B060BBE7FF20E1
:105AD000224B2349E3589847B6E7204BD620E3589A
:105AE0002049F8E71D4BC820E3581F49F3E7F82386
:105AF000FF33984217D02500FF35EB780B2B0ED1E2
:105B00005A211A4A124B1FA805F098FE012220685C
:105B10001FA9FEF7E1F8C82801D10C23EB70FF3470
:105B2000E0784DB0F0BD0D4B0D49E358FF2098478C
:105B3000E1E70A4B0E49E358F8E7C046E81B0020AE
:105B40006602000029EB000030750000521C0020A6
:105B5000F01B00206AE90000851C0020B81300003B
:105B60003AE900004BE9000055E9000097E9000020
:105B700088E90000F7B50193137807000E001400C0
:105B8000002B05D178460E4A71465033FCF7C2FF10
:105B90000C4D0B222B003100FF330B489F7005F09A
:105BA000C6FE2378002B04D00F222100074805F001
:105BB000BEFE019A064BEA50064B089AEA50F7BD22
:105BC00029EB0000E81B0020191C0020D61C002037
:105BD000B8130000BC13000084B070B50125059116
:105BE0004E21104C0793104B2060FF34B03065708D
:105BF00006920360694432220C4805F098FE252184
:105C0000282269440A4805F092FE81215022694405
:105C1000084805F08CFE6576E57670BC08BC04B0DB
:105C20001847C046E81B0020E5580000521C002021
:105C3000F01B0020851C002000487047F01B00204E
:105C4000002210B5044B054C1A55054C1A53054A51
:105C50009B58984710BDC046E81B0020D413000095
:105C6000D6130000B813000010B5024B1868FEF7F9
:105C700035FA10BDE81B0020F0B5224C87B00600B5
:105C800020680F0003920493FEF728FA059000F0B5
:105C900099FE049B3100009305003B00012220681F
:105CA000FEF76AF8060000F08DFE401B164D80B22C
:105CB000164F6053E35B059A0193009033000A206E
:105CC0001349FCF729FD134BC82E0FD11249625A14
:105CD000013262520022E254615BE25B0B1C914292
:105CE00000D2131C0020E35307B0F0BD0B4903980A
:105CF000625C01326254E25C0132E2544242504141
:105D00000130F1E7E81B0020CA130000CC130000AB
:105D1000B9E90000D1130000CE130000D013000039
:105D200070B5304C2200FF329378022B3CD1D578ED
:105D30000C3D681E85412C4BE35C012B0BD9FEF713
:105D40008FFF2300FC33986023000022FF330120E3
:105D5000DA70FFF7B7FD2600FF36F3780C2B22D060
:105D60000A20FFF7B3FDF378002B18D10378002B3E
:105D700019D00123F3702830012100781B4AFFF766
:105D8000ADFD0378002B0ED023000222FF33DA7022
:105D9000FF346378012B06D1FFF736FE03E0012BB9
:105DA000E9D0002DF4D170BD0025012BC3D1260010
:105DB000FC36F168B069FCF723FF316905007069B2
:105DC000FCF71EFF0028B6D000237361FEF748FFE2
:105DD000B0612068FDF75CFF054BD620E35803490E
:105DE0009847A8E7E81B0020D1130000FFDF000060
:105DF000B813000070B5FFF793FF184C2500FF356E
:105E0000EB780C2B28D16B7E002B04D0FFF7D0FA57
:105E1000431E984168762500FF35AB7E002B0DD0E0
:105E20009E267601A35911209A780D49FCF774FC3F
:105E3000A059FFF7FBFA431E9841A876094B0A497F
:105E4000E2580A4BFF349B1A994292415242E27641
:105E50008B4201D9FFF70AFC70BDC046E81B002049
:105E6000E8E90000C4130000FF5B2605614C000058
:105E700010B500F071FB0022024B8000C35849337B
:105E80001A7010BDF40C0020F0B5040085B01E009F
:105E90000AAB1B78103001930BAB1B7817000293F1
:105EA0000CAB1B780D00039300F0D8F920002430D0
:105EB00000F0D4F9220000234832A363E363236493
:105EC00063641370537063729D4205D12721084BA0
:105ED000084A094804F018FD2000019B2560637101
:105EE000029B2771E371039BA671237205B0F0BD7D
:105EF00008EA000019EA00006DEA000030B504006D
:105F000085B002AD00680291039201F0E5F86B796B
:105F1000227AE17920680093002301F0C1F9297900
:105F2000029A206801F0FCF8206801F0CBF805B077
:105F300030BD000010B54B1C0BD0102909D0EFF379
:105F4000108472B6102905DD02238372002C00D163
:105F500062B610BD0123827A1A43827218224A4324
:105F60000449891816228A569340C2681343C360B5
:105F7000ECE7C04620EB000007B5837A0091019260
:105F8000002B07D09A070AD5EFF310835A425341EA
:105F9000C37272B60099019AFFF7B0FF07BDDB0725
:105FA000F8D5C368014A9BB29360F3E7001800403C
:105FB000837A002B05D09A0704D5C37A002B00D032
:105FC00062B67047DB07FCD5C368024A9BB2D36058
:105FD000F7E7C0460018004010B5006801F085F8EA
:105FE00010BD70B505000C008E18B44206D02178A3
:105FF0002800FFF7F1FF20700134F6E770BD0000C4
:1060000010B5006801F0A0F803000020834203DB14
:106010000C304343014A985810BDC046D8EA0000EE
:1060200010B5006801F090F8002805DB0C2343430D
:106030000348C018406810BD01204042FBE7C0463D
:10604000D8EA000010B5006801F07EF8002805DBF2
:106050000C2343430348C018806810BD0120404210
:10606000FBE7C046D8EA0000F0B506001036050090
:1060700089B0300000F048F900286CD12F00243797
:10608000380000F041F9041E62D12800FFF7DAFF62
:10609000C1B2300000F018FA0221300000F038FAE6
:1060A00001222E49300000F00BFA300000F054FAC3
:1060B0002B4B8000C5502800FFF7B2FFC1B238005B
:1060C00000F002FA0221380000F022FA380000F055
:1060D00043FA234B8000C5502800FFF791FF0123AE
:1060E00001002200029330002300049403940194E1
:1060F000009400F033FAA8632800FFF781FF012322
:1061000002002100019338002300049403940294B8
:10611000009400F023FAE863402004F067FC2A00B2
:1061200048322864079200280BD00123137068645A
:106130006B6C10221819E96B103404F084FC402CAD
:10614000F6D1079B1B78002B05D1380000F076F9BB
:10615000300000F073F909B0F0BDC046715E000078
:10616000F40C002070B5437A0400002B03D1012207
:1061700043814272C360230048331B78002B02D155
:106180002000FFF771FF18263300082120790D4DFC
:106190004343EB18595600F047FE33000821A0791D
:1061A0004343EB18595600F03FFE082160794643FF
:1061B000AD19695600F038FE034B200006CBFFF7FF
:1061C0009DFE70BD20EB0000EC0C00201FB5094ABD
:1061D000094B0A4913600023938002930133019312
:1061E00016330093162201330548FFF74DFE05B024
:1061F00000BDC046EC0C002000093D00F414002056
:10620000A00C0020084B1968002909D1EFF3108079
:10621000064A002803D172B6BFF35F8F01311170B7
:106220001A6801321A607047B80E0020B40E0020C0
:10623000084B1A68002A0CD01A68013A1A601B68C9
:10624000002B06D1044B1B78002B02D0BFF35F8FCD
:1062500062B67047B80E0020B40E0020FF2310B5C0
:106260000370C023002104009B00417041808380A3
:106270000C22083004F0F0FB200010BD01230A00BE
:1062800010B51A40194208D00C4A137003334370FA
:106290008368002B00D0984710BD0223194204D018
:1062A00006490B70C3684270F3E704231942F3D028
:1062B000024A1370033343700369EAE74E48004112
:1062C00010B5FFF79FFF0C4B1B8C1B071B0F0B2BF5
:1062D0000FD80A4A9900885800280AD00F24084984
:1062E0000A78A24313430B70064B1978C9B2FFF723
:1062F000C5FFFFF79DFF10BD00480041BC0E002008
:106300003F4800414E480041F8B50023027805009F
:1063100018000B2A77D93C4E2B702B780B2B07D803
:1063200001229A403168114204D001332B70F4E706
:10633000012068E0FFF766FF3768344C002F2BD14F
:106340002022334B334859690A435A611022D969D4
:106350000A43DA6102222388390093432380238889
:10636000013A134323802C4B6063BF32A36304F0D4
:1063700073FBC0223900284804F06EFB4022C12084
:10638000264B80002380264B26491A601A5811405C
:10639000C02212040A431A5001231A0029783068D7
:1063A0008A40024332600F261F4A880085501F48EA
:1063B00031400278B2430A43027002201C4A11782D
:1063C00081431170117819431170297822698B402B
:1063D0009A43226160223F21636C934363642A796C
:1063E000636C0A40134912020B4003211343636498
:1063F0006A79636C0A40104992050B401343636449
:10640000FFF716FF0020F8BDB00E00200048004145
:1064100000040040F00D0020300D0020020F0000AD
:1064200000E100E0FFFF00FFBC0E00203F480041FC
:1064300040480041FFC0FFFFFFFF3FFF70B5050070
:10644000FFF7E0FE6B785CB2062B2BD02B78022492
:106450000B2B27D801229A40144B1968114221D0E6
:106460001968914319601B68002B14D14022104B0E
:10647000DA67BFF34F8FBFF36F8F21000D4A0E31E4
:106480001388A34313800C4BDA698A43DA615A6993
:1064900010318A435A6100242B78084A9B009C5093
:1064A000FF232B70FFF7C4FE200070BDB00E00204C
:1064B00004E100E00048004100040040BC0E002060
:1064C0000232920011507047037870B505000C003D
:1064D00001710B2B14D8FFF795FE29780F25094879
:1064E00029400378084AAB430B4303703F23516CA8
:1064F0001C40064B240219400C435464FFF798FEDD
:1065000070BDC0463F48004100480041FFC0FFFF4A
:10651000037870B505000C0041710B2B14D8FFF700
:1065200071FE29780F25094829400378084AAB43B2
:106530000B4303700323516C1C40064BA405194008
:106540000C435464FFF774FE70BDC0463F480041E1
:1065500000480041FFFF3FFF00787047F0B587B06B
:1065600001930CAB1E780DAB1B78050002930EABAC
:106570001B780078039310AB1F78049105920B28C9
:1065800002D9002007B0F0BD6B78062BF9D0AB78AC
:10659000002B00D179E01021080004F01DFA00283A
:1065A000EFD02B783B4A1B019B181A00D1680029B9
:1065B00004D0D1688B4201D0D268F7E7D0600122C5
:1065C0000223AA70964203D0DB18022E00D01300DB
:1065D00006240188114301800188A14301800188BC
:1065E0001234A1430180153C018826402A4C360212
:1065F00021400E430680029E0188284C164021400F
:10660000B6020E430680039E0188254C16402140A9
:10661000F6020E4306800188224E3A4031401203B2
:106620000A43072102800F9A114002884903D204CD
:10663000D20C0A4302806A4692884280049A4260E1
:10664000029A002A08D0019A41685A43002F01D0CB
:106650000F9CA2408A184260059A8260039A002A21
:1066600009D0019A84685A431300002F01D10F9A70
:106670009340E31883600023EA789A4203D02B7892
:10668000044A1B019B18C3607CE7024B0001C01841
:1066900095E7C046F00D0020FFFCFFFFFFFBFFFF6A
:1066A000FFF7FFFFFFEFFFFF10B5024801F0A2FF69
:1066B00010BDC046EC0E002010B5024801F09AFF54
:1066C00010BDC046E8110020F7B501240326154F80
:1066D0001549380000F060FC1449154800F05CFCD6
:1066E0001449154800F058FC1449154800F054FCB2
:1066F0001449154800F050FC144D1549280000F0CD
:106700004BFC39002300009600220194114801F04F
:1067100007FF290000961E231F2201940E4801F056
:10672000FFFEF7BDE414002000080042000C004208
:10673000E814002000100042EC1400200014004275
:10674000F014002000180042F4140020F814002077
:10675000001C0042EC0E0020E8110020F7B500926A
:10676000182216264243544B07009B189E5701914E
:10677000731C52D0514B524C1D68002D2BD1290057
:106780004422504804F068F9290044224E4804F09D
:1067900063F910224D4B4E491D604E4BCA67BFF343
:1067A0004F8FBFF36F8FC021C12049005A50800026
:1067B0001958FF35A94319501A60474B474A5A8068
:1067C00002232278134323706378DB09012BFBD06B
:1067D00001223A4B1A6001231D00B54062692A4329
:1067E0006261019A002A18D0102E1FD1E27813435B
:1067F000E370009B042B0BD818000723A2789A4360
:1068000002F0B4F8030C0E10120005231343A3701A
:106810002D4B019A1A64ADB2E560F7BD0423F5E78C
:106820000323F3E70223F1E70123EFE73800002712
:10683000002100F0F9FA254B22499C461B68BA005A
:10684000BB421DD16046013303601F4B8D5001993F
:106850009950072E19DD32000123083A92000720D3
:10686000904017499B005B18996981439961009991
:106870000429D0D8080002F079F80B1215181B0073
:106880008858A842E1D00137D9E70023B200E6E7F3
:106890000521986991400A0002439A61BBE70421EF
:1068A0009869F7E703219869F4E702219869F1E70D
:1068B00001219869EEE7C04620EB00008415002016
:1068C0000018004040150020FC140020881500200E
:1068D00004E100E000E100E0000C004005400000A1
:1068E00070B50024094D0A4B1B68A34200D870BD47
:1068F000084E2A6833691A4205D0074BA200D358C4
:1069000098472B68336101340435ECE740150020CB
:106910008815002000180040FC140020054B10B51D
:106920001B6C002B00D098470123034AD1780B43FE
:10693000D37010BDFC14002000180040FEE70000DA
:10694000034B10B51B68002B00D0984710BDC04604
:106950008C1500200F4A1048110010B50F4B8242D1
:1069600002D0934209D11300824209D100F084F889
:1069700001F03AFFFEE710CB10C18142FBD3F3E7F1
:10698000074A8B42F2D00021064B9A42EED202C255
:10699000FBE7C04600000020F0020020C0F300002A
:1069A00080030020F02F002010B500F062F80028CE
:1069B00001D100F053F810BD014B18607047C0467C
:1069C0008C150020014B18687047C04690150020B8
:1069D000F7B51348012284461249134C8E68636848
:1069E00005689B0E1340019288686268019F920EB1
:1069F0003A4067463F6893420ED1BD420CD1864271
:106A00000AD35B19FA254868AD00861B07486B431B
:106A10007043000DC018FEBD3D0013000600E3E703
:106A20009015002010E000E000ED00E0555500005A
:106A300070B5041E11D0FFF7CBFFFA260500B60093
:106A400000F016F8FFF7C4FF401BB042F8D3FA235A
:106A5000013C9B00ED18002CF4D170BD10B5034A29
:106A600013680133136000F05DFA10BD901500202B
:106A700070470020704700001E2270B54648474905
:106A8000436893431C3A1343436008238C692343B0
:106A90008B61434C434B9C829C8A14439C82DC68F0
:106AA0001442FCD00124404A14701578254203D0CA
:106AB00055786DB2002DF8DB01249460547864B2EF
:106AC000002CFBDB394C5460547864B2002CFBDBA7
:106AD0008224E4015480547864B2002CFBDB02244D
:106AE0009C840E34DD682542FCD0314CDC621024DD
:106AF000DD682542FCD09D8C2E4C2C439C841024B8
:106B0000DD682542FCD002249D8C80262C439C8489
:106B10004024DD683542FCD0DD682542F9D01024E0
:106B2000DD682542FCD000249460547864B2002CC7
:106B3000FBDB214C5460547864B2002CFBDB1C6AF4
:106B40001E4D2C4080251C621C6AAC431C62032332
:106B500093601B4B536053785BB2002BFBDB00232D
:106B6000FF240B72174A4B728B72CB72164B1A6052
:106B7000164B174A1B6811689A065B01C90E234021
:106B8000520F12020B431343124A138580234268AB
:106B90001343436070BDC046004000410004004004
:106BA0000C06000000080040000C00400105010038
:106BB000B905FF7D040A000000070300FFFCFFFF8A
:106BC00003060100006CDC027C00002024608000D1
:106BD0002060800000400042FA212E4B10B518685A
:106BE000890001F0D7FE802301385B0498424FD220
:106BF00029492A4A4860C020136A00061B021B0A62
:106C00000343136200238B6007330B608021136AF8
:106C100009061B021B0A0B431362FC22204B196A54
:106C20000A431A62FF22196A12020A431A62A02258
:106C3000196AD2020A431A621A4B1C005A7852B2DD
:106C4000002AFBDB184A5A80184B1A00597EC909E2
:106C50000129FBD0C821890099800521D970537E74
:106C6000DB09012BFBD0C02300205B011361907076
:106C700000F022F863785BB2002BFBDB0C4B0D4A73
:106C80006380D379DB09012BFBD04123537010BD06
:106C9000FEE7C0467C00002010E000E000ED00E0D0
:106CA00000040040000C00401E4000000040004274
:106CB00021400000004800421F4900B50B004A7EF9
:106CC000D209012AFBD001380A282FD801F04EFE44
:106CD0001B2E2E2E2E2E062E2E2411001A69174939
:106CE0000A400F211A615A788A43110001220A438F
:106CF00010E01A6911490A400F211A615A788A4333
:106D000011000322F3E71A690C490A400F211A61A6
:106D10005A788A435A7000BD1A6908490A400F21FF
:106D20001A615A788A4311000222E0E7F0221969B9
:106D300012050A43F3E7C04600400042FFFFFFF0A0
:106D4000182310B508245843134A13181C5701344C
:106D500012D001245B6882569C4003290CD808009D
:106D60000E49D2015218D318403301F0FFFD021032
:106D7000060B02211970546010BD06211970546071
:106D80009461F9E70621197054605461F4E7022117
:106D900019709460F0E7C04620EB00000044004109
:106DA0001823F0B508245843114A13181C5701340E
:106DB0001BD0012635005F688356BD400D4ADB01BC
:106DC0009A18906805420BD10C00601E8441D219BC
:106DD0004032107834400336A400B0432043107092
:106DE000044A9B18002901D15D61F0BD9D61FCE75B
:106DF00020EB000000440041182310B50824434351
:106E000007490020CA181457013408D05B560549B9
:106E1000DB015B18186A5368D8400123184010BD85
:106E200020EB000000440041182370B508264343BE
:106E30002A4AD518AE573400013607D0072907DC97
:106E400000291DDA01314C424C416442200070BDE2
:106E50000B00083BDBB20024032BF7D8092903D130
:106E60002100FFF76DFFF1E70A2904D10839FFF788
:106E700067FF0024EAE700240B29E7D10A39F0E78D
:106E80006C68012520009B56C9B262082840DB01CE
:106E90002C4211D012480E351B189A183032107837
:106EA000090128400143C9B2117041221B19403326
:106EB00019780A431A70DCE70F26094D5B199A18F6
:106EC000303215781B19B5432943117041224033E4
:106ED000197804000A431A70B8E7C04620EB000096
:106EE00000440041F8B505000E0017000024BC4224
:106EF00008D02B682800315D1B689847002801D016
:106F00000134F4E72000F8BD014B18607047C0461B
:106F1000800000200122024B52421A607047C04696
:106F200080000020164A10B51368591C27D0013B79
:106F30001360002B23D172B68122124B92000433CE
:106F4000934213D3104A01211000147D0C42FCD04F
:106F50002021148BFF319B085B0021431183D361F7
:106F60000A4B13800123027D1A42FCD0BFF34F8FDE
:106F7000074B084ADA60BFF34F8FC046FDE710BDEC
:106F800080000020002000000040004102A5FFFF1B
:106F900000ED00E00400FA05016070479446F0B58A
:106FA00005AC25789C1E621E9441624606689207D5
:106FB000376824063A4322430724326000682140A0
:106FC000AD01002442682943022B00D05C030A4330
:106FD00022434260F0BD30B5C0250368AD031C6894
:106FE00012052A402243C0240904A40221400A4376
:106FF0001A6003685A6814435C6030BD012302685C
:1070000011680B43136003681A68D207FCD4DA696D
:10701000D207F9D470470223026811680B4313604A
:107020000268D3699B07FCD4704703681A7ED207B5
:1070300002D41A7E9207FCD57047002203685A8357
:1070400070470368187E4007C00F70470368187EBA
:10705000C0097047802302685B42117E0B431376A0
:1070600070470368588B8007C00F7047022302687F
:10707000518B0B43538370470368187EC007C00FC2
:1070800070470368188DC0B2704703681A7ED20734
:10709000FCD589B2012019857047012203689A75D1
:1070A0007047012203681A7570470123026811684E
:1070B0000B43136003681A68D207FCD4DA69D2075D
:1070C000F9D470470223026811680B431360026809
:1070D000D3699B07FCD470470368DA699207FCD434
:1070E00002211A688A431A6070470268936A5B0A31
:1070F0005B020B43936203681A7E5207FCD5986AC1
:10710000C0B2704710B50548490001F043FC80B299
:10711000002801D0013880B2C0B210BD006CDC0282
:1071200070B50C000126110063080268334034403A
:10713000156824075B0723432B4313600468FFF79C
:10714000E1FF207370BD00000368104A934213D022
:107150000F4A934212D00F4A934211D00E4A9342E3
:1071600010D00E4A93420FD001200D4A4042934264
:1071700001D1063040B270470020FBE70120F9E75B
:107180000220F7E70320F5E70420F3E700080042B8
:10719000000C00420010004200140042001800429F
:1071A000001C0042F8B5FFF7CFFF00282CDB1D4B79
:1071B000C000181805230479C3560320FF22184085
:1071C000C0008240C021D2438140002B1DDB1F251F
:1071D00001201D40C026A840134D7600A851C026AE
:1071E0009B089B005B19B6009F593A401143995187
:1071F00028603F2323408024E4011C430B4B5C8028
:107200005A7852B2002AFBDBF8BD0F200340083B3E
:1072100007489B089B001B18D86902401143D9619D
:10722000E7E7C04670EF000000E100E0000C00401E
:1072300000ED00E0F8B504000F0016001D00FFF798
:10724000B1FF2000FFF7DAFE1C21BB000B407107E5
:107250002268090C0B431360842322689375012F65
:107260001AD11021012E00D008390C4B694318683F
:10727000C00001F08FFB0722216802408B89520376
:10728000DB04DB0C13438B81226803049089DB0C45
:10729000400B400318439081F8BDC0467C0000209D
:1072A000F7B50500019308AB0C0016001F78FFF737
:1072B000FCFE2800FFF776FFC021C02289022404CB
:1072C0000C409203BF073605274316403E430C2768
:1072D00007222B683E431E60019B296813401A0059
:1072E00080239B0213434B602A68D3695B07FCD45D
:1072F000F7BD3F20704713B56B460268D97107335D
:10730000546819000122A04716BD10B5022100697A
:1073100000F028FC10BD10B50321006900F038FC16
:1073200010BD000010B51300084A0400D279002AED
:1073300003D101230020636010BD0A00006903210E
:1073400000F01EFD0028F4D0F6E7C04688000020BB
:1073500010B5054C03002068421C04D11A681800BF
:1073600052699047206010BDD4000020074A0300F6
:10737000106810B5411C03D001235B42136010BD9F
:107380000221186900F0EEFCF9E7C046D4000020A5
:1073900010B503784222023303700249024800F01C
:1073A0009BFD10BD90000020B015002010B50178A5
:1073B000030042780020A12908D1212A05D11749CC
:1073C00017481A3A00F088FD012010BD2129FCD190
:1073D000202A13D111491248193A00F01DFC9622B7
:1073E0000E4BD200196891420ED1DA7901231A426C
:1073F0000AD1FA20FFF788FD0020E6E7222A06D10D
:107400009A78064BDA71EAE7FFF784FDF4E7232A5E
:10741000DBD15A88034B1A60D7E7C04688000020AA
:10742000B015002084000020FA220021054B9200B4
:107430009A60054A08321A60044A59601A6119763E
:107440007047C04694150020A0EF0000B015002042
:10745000704770B50F26CB1D02003240D5B22C000C
:1074600000093034092A00DD07341C705A1E994285
:1074700000D170BD1300EFE710B50400806903F080
:10748000BFFAA06A03F0BCFA200010BD10B50400DA
:10749000FFF7F2FF200001F0CDF9200010BD000041
:1074A00070B5032908D1324B8000C058002802D0A3
:1074B0000368DB68984770BD82291FD1C3B22D4D88
:1074C0005A01AA1891692C4C80010C40C0218905F1
:1074D00021439161294908334018802150612A686D
:1074E0005B01D01804794942214301717020995CF5
:1074F00081430800302101439954DCE70029DAD1A7
:10750000C024C1B21B4E4A01B21893681A4DA4059B
:107510002B40234393601A4B8001C0180B0050602E
:107520003068072608335B01195CB1430E00012166
:107530003143195491690D402C43946170240F49D3
:107540005161195CA1430C00102121431954916829
:107550000C4CC3180C408021490321439160916871
:10756000890B89039160402259790A435A71A2E735
:10757000B4150020681A0020FFFFFF8FDC150020E3
:107580009C170020FF3F00F0EFF3108303600123FE
:10759000436072B670470368002B02D162B6BFF336
:1075A0006F8F704737B5056904006846002D14D108
:1075B000FFF7EAFF019B621D013B02D3D57FEDB2CD
:1075C000FAE768460193FFF7E6FF002D01D100209E
:1075D0003EBD206AE369C01AFAE7FFF7D5FF220033
:1075E0000025019B3432013B02D31578EDB2FAE756
:1075F00068460193FFF7CFFF002DE8D0206BE36AC8
:10760000E9E70000F0B5FF250126426883681168AC
:107610002B405B01CC186419A77AD3183E43A6729D
:10762000C6689C680B4FB60436093C4034439C60E6
:1076300083682B405B01D2189468A40BA403946068
:10764000402283682B4008335B01CB1819790A4329
:107650001A71F0BDFF3F00F0F7B5056904000E0098
:1076600017006846002D43D1FFF78EFF019B601D78
:10767000013B5A1C0BD0C27F591E002A05D1684617
:107680000193FFF788FF2800FEBD0B00F1E7684675
:107690000193FFF780FFE369AF420AD0226A9A4262
:1076A00007D95A1CE261A269D3181B7873550135BA
:1076B000F1E7226A9A42E6D10023E361013368468A
:1076C0002361FFF761FF22000021019B671D013B41
:1076D0003532581CD3D0F97710785E1E002805D0BB
:1076E000200011700193FFF78DFFECE73300F0E706
:1076F000FFF74AFF2000019B3430013B5A1C06D0A3
:107700000278591ED5B2002AB9D00B00F6E76846B8
:1077100001930025FFF73FFFE36ABD4202D0226BD1
:107720009A421CD8226B9A42ADD100236846E3628C
:107730002361FFF729FF270022000021019B343736
:10774000013B3532581C9AD0397010785E1E0028E3
:107750000DD0200011700193FFF754FFEBE75A1C86
:10776000E262A26AD3181B7873550135D4E733005F
:10777000E8E7F7B582684368D2B211000400083127
:10778000186849014118C879C00729D50125520157
:10779000CD719B189A6861699204920C002923D1DB
:1077A0002262226A002A41D0A26A656168465A6054
:1077B000FFF7EAFE342294462200019B671D013B3D
:1077C000A4443532591C2DD06146FD770978581EE6
:1077D000CEB2002905D0019368461570FFF7DBFE95
:1077E000F7BD03001670EDE72263226B002A1DD05F
:1077F000002227006261A26968465A60FFF7C4FE52
:10780000019B621D9446013B34373032591C09D02C
:1078100061463D70C97F581ECEB20029DBD10300FE
:107820001670F3E768460193FFF7B5FE2000FFF7F7
:10783000E9FED5E713B56A4600230C00D01DD371CD
:10784000FFF7A6FD23681818206001F02BF86B469F
:10785000D91D00F0F3FF236818186B462060D87913
:1078600016BD000003290ED180220E4B62311B6829
:10787000FF31585C524202435A5468226339FF3246
:10788000FF39995470470129FCD18022054B2431DE
:107890001B68FF31585C524202435A542822233954
:1078A000FF32EDE7681A002070B500252F4B01214B
:1078B00004001A201D70FFF743FA01211A20FFF778
:1078C0006FFA2B4B012119201D70FFF739FA0121A6
:1078D0001920FFF765FA2023264A0F20D1690B43B0
:1078E000D361012224490B7813430B70234B197881
:1078F0008143197006211D782943197020490D789C
:107900002A430A701A7802401A70602219780A43D2
:107910001A701C4B1C4A5A805A78D209FCD11B4859
:10792000FFF74AF81A4D280000F0D0FF280000F0B9
:10793000E3FF7F212B68C1201A7880000A401A706B
:10794000042219780A430C211A701A898A431149B2
:107950001A810A581202120A0A5080220A60197803
:107960007E3A0A431A700123237070BDD11500209E
:10797000D015002000040040584400413C44004120
:1079800059440041000C00400640000061830000A3
:10799000681A002000E100E00078002810D00121E2
:1079A000084B1B681A898A431A810822198B0A43DB
:1079B0001A830422198B0A431A830022024B1A608D
:1079C0007047C046681A0020601A00200A000E495D
:1079D0008B699B0B9B038B610B680221FF33197230
:1079E0009879823901439971197A8907FCD57F20EA
:1079F000064B0240997A8143114380229972997A09
:107A000052420A439A727047681A0020005000419F
:107A100010B50B790C00002B0CD10800FFF7C6FC49
:107A2000002801D0012010BD094A93699B0B9B03DC
:107A30009361F7E700F036FF210000F023FF0028F4
:107A4000F0D1034A93699B0B9B039361EBE7C0461C
:107A5000681A0020F7B50D001100832A19D1EBB286
:107A6000324C5A01A21891693148AD010840C02139
:107A70008905014391612F4920686D1870210833F1
:107A800055615B011A5C8A43110040220A431A5473
:107A9000F7BD022A45D1284AAB009858002802D0E9
:107AA00003685B699847382000F0C0FE234B8027AD
:107AB000036000231D4E7F00421D0362036143618A
:107AC000C36146608560C760D3772F32C3620363AA
:107AD000040013703800537002F088FF0190A06119
